{
  "contractName": "MintNFT",
  "abi": [
    {
      "inputs": [],
      "stateMutability": "nonpayable",
      "type": "constructor"
    },
    {
      "anonymous": false,
      "inputs": [
        {
          "indexed": true,
          "internalType": "address",
          "name": "owner",
          "type": "address"
        },
        {
          "indexed": true,
          "internalType": "address",
          "name": "approved",
          "type": "address"
        },
        {
          "indexed": true,
          "internalType": "uint256",
          "name": "tokenId",
          "type": "uint256"
        }
      ],
      "name": "Approval",
      "type": "event"
    },
    {
      "anonymous": false,
      "inputs": [
        {
          "indexed": true,
          "internalType": "address",
          "name": "owner",
          "type": "address"
        },
        {
          "indexed": true,
          "internalType": "address",
          "name": "operator",
          "type": "address"
        },
        {
          "indexed": false,
          "internalType": "bool",
          "name": "approved",
          "type": "bool"
        }
      ],
      "name": "ApprovalForAll",
      "type": "event"
    },
    {
      "anonymous": false,
      "inputs": [
        {
          "indexed": true,
          "internalType": "address",
          "name": "previousOwner",
          "type": "address"
        },
        {
          "indexed": true,
          "internalType": "address",
          "name": "newOwner",
          "type": "address"
        }
      ],
      "name": "OwnershipTransferred",
      "type": "event"
    },
    {
      "anonymous": false,
      "inputs": [
        {
          "indexed": true,
          "internalType": "address",
          "name": "from",
          "type": "address"
        },
        {
          "indexed": true,
          "internalType": "address",
          "name": "to",
          "type": "address"
        },
        {
          "indexed": true,
          "internalType": "uint256",
          "name": "tokenId",
          "type": "uint256"
        }
      ],
      "name": "Transfer",
      "type": "event"
    },
    {
      "inputs": [
        {
          "internalType": "address",
          "name": "to",
          "type": "address"
        },
        {
          "internalType": "uint256",
          "name": "tokenId",
          "type": "uint256"
        }
      ],
      "name": "approve",
      "outputs": [],
      "stateMutability": "nonpayable",
      "type": "function"
    },
    {
      "inputs": [
        {
          "internalType": "address",
          "name": "owner",
          "type": "address"
        }
      ],
      "name": "balanceOf",
      "outputs": [
        {
          "internalType": "uint256",
          "name": "",
          "type": "uint256"
        }
      ],
      "stateMutability": "view",
      "type": "function",
      "constant": true
    },
    {
      "inputs": [
        {
          "internalType": "uint256",
          "name": "tokenId",
          "type": "uint256"
        }
      ],
      "name": "getApproved",
      "outputs": [
        {
          "internalType": "address",
          "name": "",
          "type": "address"
        }
      ],
      "stateMutability": "view",
      "type": "function",
      "constant": true
    },
    {
      "inputs": [
        {
          "internalType": "string",
          "name": "",
          "type": "string"
        }
      ],
      "name": "getToken",
      "outputs": [
        {
          "internalType": "uint256",
          "name": "",
          "type": "uint256"
        }
      ],
      "stateMutability": "view",
      "type": "function",
      "constant": true
    },
    {
      "inputs": [
        {
          "internalType": "address",
          "name": "owner",
          "type": "address"
        },
        {
          "internalType": "address",
          "name": "operator",
          "type": "address"
        }
      ],
      "name": "isApprovedForAll",
      "outputs": [
        {
          "internalType": "bool",
          "name": "",
          "type": "bool"
        }
      ],
      "stateMutability": "view",
      "type": "function",
      "constant": true
    },
    {
      "inputs": [],
      "name": "name",
      "outputs": [
        {
          "internalType": "string",
          "name": "",
          "type": "string"
        }
      ],
      "stateMutability": "view",
      "type": "function",
      "constant": true
    },
    {
      "inputs": [],
      "name": "nftPrice",
      "outputs": [
        {
          "internalType": "uint256",
          "name": "",
          "type": "uint256"
        }
      ],
      "stateMutability": "view",
      "type": "function",
      "constant": true
    },
    {
      "inputs": [],
      "name": "owner",
      "outputs": [
        {
          "internalType": "address",
          "name": "",
          "type": "address"
        }
      ],
      "stateMutability": "view",
      "type": "function",
      "constant": true
    },
    {
      "inputs": [
        {
          "internalType": "uint256",
          "name": "tokenId",
          "type": "uint256"
        }
      ],
      "name": "ownerOf",
      "outputs": [
        {
          "internalType": "address",
          "name": "",
          "type": "address"
        }
      ],
      "stateMutability": "view",
      "type": "function",
      "constant": true
    },
    {
      "inputs": [],
      "name": "renounceOwnership",
      "outputs": [],
      "stateMutability": "nonpayable",
      "type": "function"
    },
    {
      "inputs": [
        {
          "internalType": "address",
          "name": "from",
          "type": "address"
        },
        {
          "internalType": "address",
          "name": "to",
          "type": "address"
        },
        {
          "internalType": "uint256",
          "name": "tokenId",
          "type": "uint256"
        }
      ],
      "name": "safeTransferFrom",
      "outputs": [],
      "stateMutability": "nonpayable",
      "type": "function"
    },
    {
      "inputs": [
        {
          "internalType": "address",
          "name": "from",
          "type": "address"
        },
        {
          "internalType": "address",
          "name": "to",
          "type": "address"
        },
        {
          "internalType": "uint256",
          "name": "tokenId",
          "type": "uint256"
        },
        {
          "internalType": "bytes",
          "name": "data",
          "type": "bytes"
        }
      ],
      "name": "safeTransferFrom",
      "outputs": [],
      "stateMutability": "nonpayable",
      "type": "function"
    },
    {
      "inputs": [
        {
          "internalType": "address",
          "name": "operator",
          "type": "address"
        },
        {
          "internalType": "bool",
          "name": "approved",
          "type": "bool"
        }
      ],
      "name": "setApprovalForAll",
      "outputs": [],
      "stateMutability": "nonpayable",
      "type": "function"
    },
    {
      "inputs": [
        {
          "internalType": "bytes4",
          "name": "interfaceId",
          "type": "bytes4"
        }
      ],
      "name": "supportsInterface",
      "outputs": [
        {
          "internalType": "bool",
          "name": "",
          "type": "bool"
        }
      ],
      "stateMutability": "view",
      "type": "function",
      "constant": true
    },
    {
      "inputs": [],
      "name": "symbol",
      "outputs": [
        {
          "internalType": "string",
          "name": "",
          "type": "string"
        }
      ],
      "stateMutability": "view",
      "type": "function",
      "constant": true
    },
    {
      "inputs": [],
      "name": "token",
      "outputs": [
        {
          "internalType": "contract IERC20",
          "name": "",
          "type": "address"
        }
      ],
      "stateMutability": "view",
      "type": "function",
      "constant": true
    },
    {
      "inputs": [
        {
          "internalType": "uint256",
          "name": "tokenId",
          "type": "uint256"
        }
      ],
      "name": "tokenURI",
      "outputs": [
        {
          "internalType": "string",
          "name": "",
          "type": "string"
        }
      ],
      "stateMutability": "view",
      "type": "function",
      "constant": true
    },
    {
      "inputs": [
        {
          "internalType": "address",
          "name": "from",
          "type": "address"
        },
        {
          "internalType": "address",
          "name": "to",
          "type": "address"
        },
        {
          "internalType": "uint256",
          "name": "tokenId",
          "type": "uint256"
        }
      ],
      "name": "transferFrom",
      "outputs": [],
      "stateMutability": "nonpayable",
      "type": "function"
    },
    {
      "inputs": [
        {
          "internalType": "address",
          "name": "newOwner",
          "type": "address"
        }
      ],
      "name": "transferOwnership",
      "outputs": [],
      "stateMutability": "nonpayable",
      "type": "function"
    },
    {
      "inputs": [
        {
          "internalType": "address",
          "name": "to",
          "type": "address"
        },
        {
          "internalType": "string",
          "name": "tokenURI",
          "type": "string"
        }
      ],
      "name": "mintNFT",
      "outputs": [
        {
          "internalType": "uint256",
          "name": "",
          "type": "uint256"
        }
      ],
      "stateMutability": "nonpayable",
      "type": "function"
    }
  ],
  "bytecode": "0x60806040523480156200001157600080fd5b506040518060400160405280600681526020017f4172744e465400000000000000000000000000000000000000000000000000008152506040518060400160405280600381526020017f415254000000000000000000000000000000000000000000000000000000000081525081600090816200008f919062000421565b508060019081620000a1919062000421565b505050620000c4620000b8620000d960201b60201c565b620000e160201b60201c565b678ac7230489e80000600b8190555062000508565b600033905090565b6000600760009054906101000a900473ffffffffffffffffffffffffffffffffffffffff16905081600760006101000a81548173ffffffffffffffffffffffffffffffffffffffff021916908373ffffffffffffffffffffffffffffffffffffffff1602179055508173ffffffffffffffffffffffffffffffffffffffff168173ffffffffffffffffffffffffffffffffffffffff167f8be0079c531659141344cd1fd0a4f28419497f9722a3daafe3b4186f6b6457e060405160405180910390a35050565b600081519050919050565b7f4e487b7100000000000000000000000000000000000000000000000000000000600052604160045260246000fd5b7f4e487b7100000000000000000000000000000000000000000000000000000000600052602260045260246000fd5b600060028204905060018216806200022957607f821691505b6020821081036200023f576200023e620001e1565b5b50919050565b60008190508160005260206000209050919050565b60006020601f8301049050919050565b600082821b905092915050565b600060088302620002a97fffffffffffffffffffffffffffffffffffffffffffffffffffffffffffffffff826200026a565b620002b586836200026a565b95508019841693508086168417925050509392505050565b6000819050919050565b6000819050919050565b600062000302620002fc620002f684620002cd565b620002d7565b620002cd565b9050919050565b6000819050919050565b6200031e83620002e1565b620003366200032d8262000309565b84845462000277565b825550505050565b600090565b6200034d6200033e565b6200035a81848462000313565b505050565b5b8181101562000382576200037660008262000343565b60018101905062000360565b5050565b601f821115620003d1576200039b8162000245565b620003a6846200025a565b81016020851015620003b6578190505b620003ce620003c5856200025a565b8301826200035f565b50505b505050565b600082821c905092915050565b6000620003f660001984600802620003d6565b1980831691505092915050565b6000620004118383620003e3565b9150826002028217905092915050565b6200042c82620001a7565b67ffffffffffffffff811115620004485762000447620001b2565b5b62000454825462000210565b6200046182828562000386565b600060209050601f83116001811462000499576000841562000484578287015190505b62000490858262000403565b86555062000500565b601f198416620004a98662000245565b60005b82811015620004d357848901518255600182019150602085019450602081019050620004ac565b86831015620004f35784890151620004ef601f891682620003e3565b8355505b6001600288020188555050505b505050505050565b61306480620005186000396000f3fe608060405234801561001057600080fd5b506004361061012c5760003560e01c80638da5cb5b116100ad578063c87b56dd11610071578063c87b56dd1461032f578063e985e9c51461035f578063eacabe141461038f578063f2fde38b146103bf578063fc0c546a146103db5761012c565b80638da5cb5b1461028b57806395d89b41146102a9578063a22cb465146102c7578063b88d4fde146102e3578063c1733f68146102ff5761012c565b806323b872dd116100f457806323b872dd146101e957806342842e0e146102055780636352211e1461022157806370a0823114610251578063715018a6146102815761012c565b806301ffc9a71461013157806306fdde0314610161578063081812fc1461017f578063095ea7b3146101af5780630d39fc81146101cb575b600080fd5b61014b60048036038101906101469190611bd3565b6103f9565b6040516101589190611c1b565b60405180910390f35b6101696104db565b6040516101769190611cc6565b60405180910390f35b61019960048036038101906101949190611d1e565b61056d565b6040516101a69190611d8c565b60405180910390f35b6101c960048036038101906101c49190611dd3565b6105b3565b005b6101d36106ca565b6040516101e09190611e22565b60405180910390f35b61020360048036038101906101fe9190611e3d565b6106d0565b005b61021f600480360381019061021a9190611e3d565b610730565b005b61023b60048036038101906102369190611d1e565b610750565b6040516102489190611d8c565b60405180910390f35b61026b60048036038101906102669190611e90565b610801565b6040516102789190611e22565b60405180910390f35b6102896108b8565b005b6102936108cc565b6040516102a09190611d8c565b60405180910390f35b6102b16108f6565b6040516102be9190611cc6565b60405180910390f35b6102e160048036038101906102dc9190611ee9565b610988565b005b6102fd60048036038101906102f8919061205e565b61099e565b005b61031960048036038101906103149190612182565b610a00565b6040516103269190611e22565b60405180910390f35b61034960048036038101906103449190611d1e565b610a2e565b6040516103569190611cc6565b60405180910390f35b610379600480360381019061037491906121cb565b610b40565b6040516103869190611c1b565b60405180910390f35b6103a960048036038101906103a4919061220b565b610bd4565b6040516103b69190611e22565b60405180910390f35b6103d960048036038101906103d49190611e90565b610cd8565b005b6103e3610d5b565b6040516103f091906122c6565b60405180910390f35b60007f80ac58cd000000000000000000000000000000000000000000000000000000007bffffffffffffffffffffffffffffffffffffffffffffffffffffffff1916827bffffffffffffffffffffffffffffffffffffffffffffffffffffffff191614806104c457507f5b5e139f000000000000000000000000000000000000000000000000000000007bffffffffffffffffffffffffffffffffffffffffffffffffffffffff1916827bffffffffffffffffffffffffffffffffffffffffffffffffffffffff1916145b806104d457506104d382610d81565b5b9050919050565b6060600080546104ea90612310565b80601f016020809104026020016040519081016040528092919081815260200182805461051690612310565b80156105635780601f1061053857610100808354040283529160200191610563565b820191906000526020600020905b81548152906001019060200180831161054657829003601f168201915b5050505050905090565b600061057882610deb565b6004600083815260200190815260200160002060009054906101000a900473ffffffffffffffffffffffffffffffffffffffff169050919050565b60006105be82610750565b90508073ffffffffffffffffffffffffffffffffffffffff168373ffffffffffffffffffffffffffffffffffffffff160361062e576040517f08c379a0000000000000000000000000000000000000000000000000000000008152600401610625906123b3565b60405180910390fd5b8073ffffffffffffffffffffffffffffffffffffffff1661064d610e36565b73ffffffffffffffffffffffffffffffffffffffff16148061067c575061067b81610676610e36565b610b40565b5b6106bb576040517f08c379a00000000000000000000000000000000000000000000000000000000081526004016106b290612445565b60405180910390fd5b6106c58383610e3e565b505050565b600b5481565b6106e16106db610e36565b82610ef7565b610720576040517f08c379a0000000000000000000000000000000000000000000000000000000008152600401610717906124d7565b60405180910390fd5b61072b838383610f8c565b505050565b61074b8383836040518060200160405280600081525061099e565b505050565b6000806002600084815260200190815260200160002060009054906101000a900473ffffffffffffffffffffffffffffffffffffffff169050600073ffffffffffffffffffffffffffffffffffffffff168173ffffffffffffffffffffffffffffffffffffffff16036107f8576040517f08c379a00000000000000000000000000000000000000000000000000000000081526004016107ef90612543565b60405180910390fd5b80915050919050565b60008073ffffffffffffffffffffffffffffffffffffffff168273ffffffffffffffffffffffffffffffffffffffff1603610871576040517f08c379a0000000000000000000000000000000000000000000000000000000008152600401610868906125d5565b60405180910390fd5b600360008373ffffffffffffffffffffffffffffffffffffffff1673ffffffffffffffffffffffffffffffffffffffff168152602001908152602001600020549050919050565b6108c06111f2565b6108ca6000611270565b565b6000600760009054906101000a900473ffffffffffffffffffffffffffffffffffffffff16905090565b60606001805461090590612310565b80601f016020809104026020016040519081016040528092919081815260200182805461093190612310565b801561097e5780601f106109535761010080835404028352916020019161097e565b820191906000526020600020905b81548152906001019060200180831161096157829003601f168201915b5050505050905090565b61099a610993610e36565b8383611336565b5050565b6109af6109a9610e36565b83610ef7565b6109ee576040517f08c379a00000000000000000000000000000000000000000000000000000000081526004016109e5906124d7565b60405180910390fd5b6109fa848484846114a2565b50505050565b6009818051602081018201805184825260208301602085012081835280955050505050506000915090505481565b6060610a3982610deb565b6000600660008481526020019081526020016000208054610a5990612310565b80601f0160208091040260200160405190810160405280929190818152602001828054610a8590612310565b8015610ad25780601f10610aa757610100808354040283529160200191610ad2565b820191906000526020600020905b815481529060010190602001808311610ab557829003601f168201915b505050505090506000610ae36114fe565b90506000815103610af8578192505050610b3b565b600082511115610b2d578082604051602001610b15929190612631565b60405160208183030381529060405292505050610b3b565b610b3684611515565b925050505b919050565b6000600560008473ffffffffffffffffffffffffffffffffffffffff1673ffffffffffffffffffffffffffffffffffffffff16815260200190815260200160002060008373ffffffffffffffffffffffffffffffffffffffff1673ffffffffffffffffffffffffffffffffffffffff16815260200190815260200160002060009054906101000a900460ff16905092915050565b6000600b54600a60009054906101000a900473ffffffffffffffffffffffffffffffffffffffff1673ffffffffffffffffffffffffffffffffffffffff166370a08231856040518263ffffffff1660e01b8152600401610c349190611d8c565b602060405180830381865afa158015610c51573d6000803e3d6000fd5b505050506040513d601f19601f82011682018060405250810190610c75919061266a565b11610c7f57600080fd5b610c89600861157d565b6000610c956008611593565b9050610ca184826115a1565b610cab818461177a565b80600984604051610cbc9190612697565b9081526020016040518091039020819055508091505092915050565b610ce06111f2565b600073ffffffffffffffffffffffffffffffffffffffff168173ffffffffffffffffffffffffffffffffffffffff1603610d4f576040517f08c379a0000000000000000000000000000000000000000000000000000000008152600401610d4690612720565b60405180910390fd5b610d5881611270565b50565b600a60009054906101000a900473ffffffffffffffffffffffffffffffffffffffff1681565b60007f01ffc9a7000000000000000000000000000000000000000000000000000000007bffffffffffffffffffffffffffffffffffffffffffffffffffffffff1916827bffffffffffffffffffffffffffffffffffffffffffffffffffffffff1916149050919050565b610df4816117e7565b610e33576040517f08c379a0000000000000000000000000000000000000000000000000000000008152600401610e2a90612543565b60405180910390fd5b50565b600033905090565b816004600083815260200190815260200160002060006101000a81548173ffffffffffffffffffffffffffffffffffffffff021916908373ffffffffffffffffffffffffffffffffffffffff160217905550808273ffffffffffffffffffffffffffffffffffffffff16610eb183610750565b73ffffffffffffffffffffffffffffffffffffffff167f8c5be1e5ebec7d5bd14f71427d1e84f3dd0314c0f7b2291e5b200ac8c7c3b92560405160405180910390a45050565b600080610f0383610750565b90508073ffffffffffffffffffffffffffffffffffffffff168473ffffffffffffffffffffffffffffffffffffffff161480610f455750610f448185610b40565b5b80610f8357508373ffffffffffffffffffffffffffffffffffffffff16610f6b8461056d565b73ffffffffffffffffffffffffffffffffffffffff16145b91505092915050565b8273ffffffffffffffffffffffffffffffffffffffff16610fac82610750565b73ffffffffffffffffffffffffffffffffffffffff1614611002576040517f08c379a0000000000000000000000000000000000000000000000000000000008152600401610ff9906127b2565b60405180910390fd5b600073ffffffffffffffffffffffffffffffffffffffff168273ffffffffffffffffffffffffffffffffffffffff1603611071576040517f08c379a000000000000000000000000000000000000000000000000000000000815260040161106890612844565b60405180910390fd5b61107c838383611853565b611087600082610e3e565b6001600360008573ffffffffffffffffffffffffffffffffffffffff1673ffffffffffffffffffffffffffffffffffffffff16815260200190815260200160002060008282546110d79190612893565b925050819055506001600360008473ffffffffffffffffffffffffffffffffffffffff1673ffffffffffffffffffffffffffffffffffffffff168152602001908152602001600020600082825461112e91906128c7565b92505081905550816002600083815260200190815260200160002060006101000a81548173ffffffffffffffffffffffffffffffffffffffff021916908373ffffffffffffffffffffffffffffffffffffffff160217905550808273ffffffffffffffffffffffffffffffffffffffff168473ffffffffffffffffffffffffffffffffffffffff167fddf252ad1be2c89b69c2b068fc378daa952ba7f163c4a11628f55a4df523b3ef60405160405180910390a46111ed838383611858565b505050565b6111fa610e36565b73ffffffffffffffffffffffffffffffffffffffff166112186108cc565b73ffffffffffffffffffffffffffffffffffffffff161461126e576040517f08c379a000000000000000000000000000000000000000000000000000000000815260040161126590612947565b60405180910390fd5b565b6000600760009054906101000a900473ffffffffffffffffffffffffffffffffffffffff16905081600760006101000a81548173ffffffffffffffffffffffffffffffffffffffff021916908373ffffffffffffffffffffffffffffffffffffffff1602179055508173ffffffffffffffffffffffffffffffffffffffff168173ffffffffffffffffffffffffffffffffffffffff167f8be0079c531659141344cd1fd0a4f28419497f9722a3daafe3b4186f6b6457e060405160405180910390a35050565b8173ffffffffffffffffffffffffffffffffffffffff168373ffffffffffffffffffffffffffffffffffffffff16036113a4576040517f08c379a000000000000000000000000000000000000000000000000000000000815260040161139b906129b3565b60405180910390fd5b80600560008573ffffffffffffffffffffffffffffffffffffffff1673ffffffffffffffffffffffffffffffffffffffff16815260200190815260200160002060008473ffffffffffffffffffffffffffffffffffffffff1673ffffffffffffffffffffffffffffffffffffffff16815260200190815260200160002060006101000a81548160ff0219169083151502179055508173ffffffffffffffffffffffffffffffffffffffff168373ffffffffffffffffffffffffffffffffffffffff167f17307eab39ab6107e8899845ad3d59bd9653f200f220920489ca2b5937696c31836040516114959190611c1b565b60405180910390a3505050565b6114ad848484610f8c565b6114b98484848461185d565b6114f8576040517f08c379a00000000000000000000000000000000000000000000000000000000081526004016114ef90612a45565b60405180910390fd5b50505050565b606060405180602001604052806000815250905090565b606061152082610deb565b600061152a6114fe565b9050600081511161154a5760405180602001604052806000815250611575565b80611554846119e4565b604051602001611565929190612631565b6040516020818303038152906040525b915050919050565b6001816000016000828254019250508190555050565b600081600001549050919050565b600073ffffffffffffffffffffffffffffffffffffffff168273ffffffffffffffffffffffffffffffffffffffff1603611610576040517f08c379a000000000000000000000000000000000000000000000000000000000815260040161160790612ab1565b60405180910390fd5b611619816117e7565b15611659576040517f08c379a000000000000000000000000000000000000000000000000000000000815260040161165090612b1d565b60405180910390fd5b61166560008383611853565b6001600360008473ffffffffffffffffffffffffffffffffffffffff1673ffffffffffffffffffffffffffffffffffffffff16815260200190815260200160002060008282546116b591906128c7565b92505081905550816002600083815260200190815260200160002060006101000a81548173ffffffffffffffffffffffffffffffffffffffff021916908373ffffffffffffffffffffffffffffffffffffffff160217905550808273ffffffffffffffffffffffffffffffffffffffff16600073ffffffffffffffffffffffffffffffffffffffff167fddf252ad1be2c89b69c2b068fc378daa952ba7f163c4a11628f55a4df523b3ef60405160405180910390a461177660008383611858565b5050565b611783826117e7565b6117c2576040517f08c379a00000000000000000000000000000000000000000000000000000000081526004016117b990612baf565b60405180910390fd5b806006600084815260200190815260200160002090816117e29190612d71565b505050565b60008073ffffffffffffffffffffffffffffffffffffffff166002600084815260200190815260200160002060009054906101000a900473ffffffffffffffffffffffffffffffffffffffff1673ffffffffffffffffffffffffffffffffffffffff1614159050919050565b505050565b505050565b600061187e8473ffffffffffffffffffffffffffffffffffffffff16611b44565b156119d7578373ffffffffffffffffffffffffffffffffffffffff1663150b7a026118a7610e36565b8786866040518563ffffffff1660e01b81526004016118c99493929190612e98565b6020604051808303816000875af192505050801561190557506040513d601f19601f820116820180604052508101906119029190612ef9565b60015b611987573d8060008114611935576040519150601f19603f3d011682016040523d82523d6000602084013e61193a565b606091505b50600081510361197f576040517f08c379a000000000000000000000000000000000000000000000000000000000815260040161197690612a45565b60405180910390fd5b805181602001fd5b63150b7a0260e01b7bffffffffffffffffffffffffffffffffffffffffffffffffffffffff1916817bffffffffffffffffffffffffffffffffffffffffffffffffffffffff1916149150506119dc565b600190505b949350505050565b606060008203611a2b576040518060400160405280600181526020017f30000000000000000000000000000000000000000000000000000000000000008152509050611b3f565b600082905060005b60008214611a5d578080611a4690612f26565b915050600a82611a569190612f9d565b9150611a33565b60008167ffffffffffffffff811115611a7957611a78611f33565b5b6040519080825280601f01601f191660200182016040528015611aab5781602001600182028036833780820191505090505b5090505b60008514611b3857600182611ac49190612893565b9150600a85611ad39190612fce565b6030611adf91906128c7565b60f81b818381518110611af557611af4612fff565b5b60200101907effffffffffffffffffffffffffffffffffffffffffffffffffffffffffffff1916908160001a905350600a85611b319190612f9d565b9450611aaf565b8093505050505b919050565b6000808273ffffffffffffffffffffffffffffffffffffffff163b119050919050565b6000604051905090565b600080fd5b600080fd5b60007fffffffff0000000000000000000000000000000000000000000000000000000082169050919050565b611bb081611b7b565b8114611bbb57600080fd5b50565b600081359050611bcd81611ba7565b92915050565b600060208284031215611be957611be8611b71565b5b6000611bf784828501611bbe565b91505092915050565b60008115159050919050565b611c1581611c00565b82525050565b6000602082019050611c306000830184611c0c565b92915050565b600081519050919050565b600082825260208201905092915050565b60005b83811015611c70578082015181840152602081019050611c55565b60008484015250505050565b6000601f19601f8301169050919050565b6000611c9882611c36565b611ca28185611c41565b9350611cb2818560208601611c52565b611cbb81611c7c565b840191505092915050565b60006020820190508181036000830152611ce08184611c8d565b905092915050565b6000819050919050565b611cfb81611ce8565b8114611d0657600080fd5b50565b600081359050611d1881611cf2565b92915050565b600060208284031215611d3457611d33611b71565b5b6000611d4284828501611d09565b91505092915050565b600073ffffffffffffffffffffffffffffffffffffffff82169050919050565b6000611d7682611d4b565b9050919050565b611d8681611d6b565b82525050565b6000602082019050611da16000830184611d7d565b92915050565b611db081611d6b565b8114611dbb57600080fd5b50565b600081359050611dcd81611da7565b92915050565b60008060408385031215611dea57611de9611b71565b5b6000611df885828601611dbe565b9250506020611e0985828601611d09565b9150509250929050565b611e1c81611ce8565b82525050565b6000602082019050611e376000830184611e13565b92915050565b600080600060608486031215611e5657611e55611b71565b5b6000611e6486828701611dbe565b9350506020611e7586828701611dbe565b9250506040611e8686828701611d09565b9150509250925092565b600060208284031215611ea657611ea5611b71565b5b6000611eb484828501611dbe565b91505092915050565b611ec681611c00565b8114611ed157600080fd5b50565b600081359050611ee381611ebd565b92915050565b60008060408385031215611f0057611eff611b71565b5b6000611f0e85828601611dbe565b9250506020611f1f85828601611ed4565b9150509250929050565b600080fd5b600080fd5b7f4e487b7100000000000000000000000000000000000000000000000000000000600052604160045260246000fd5b611f6b82611c7c565b810181811067ffffffffffffffff82111715611f8a57611f89611f33565b5b80604052505050565b6000611f9d611b67565b9050611fa98282611f62565b919050565b600067ffffffffffffffff821115611fc957611fc8611f33565b5b611fd282611c7c565b9050602081019050919050565b82818337600083830152505050565b6000612001611ffc84611fae565b611f93565b90508281526020810184848401111561201d5761201c611f2e565b5b612028848285611fdf565b509392505050565b600082601f83011261204557612044611f29565b5b8135612055848260208601611fee565b91505092915050565b6000806000806080858703121561207857612077611b71565b5b600061208687828801611dbe565b945050602061209787828801611dbe565b93505060406120a887828801611d09565b925050606085013567ffffffffffffffff8111156120c9576120c8611b76565b5b6120d587828801612030565b91505092959194509250565b600067ffffffffffffffff8211156120fc576120fb611f33565b5b61210582611c7c565b9050602081019050919050565b6000612125612120846120e1565b611f93565b90508281526020810184848401111561214157612140611f2e565b5b61214c848285611fdf565b509392505050565b600082601f83011261216957612168611f29565b5b8135612179848260208601612112565b91505092915050565b60006020828403121561219857612197611b71565b5b600082013567ffffffffffffffff8111156121b6576121b5611b76565b5b6121c284828501612154565b91505092915050565b600080604083850312156121e2576121e1611b71565b5b60006121f085828601611dbe565b925050602061220185828601611dbe565b9150509250929050565b6000806040838503121561222257612221611b71565b5b600061223085828601611dbe565b925050602083013567ffffffffffffffff81111561225157612250611b76565b5b61225d85828601612154565b9150509250929050565b6000819050919050565b600061228c61228761228284611d4b565b612267565b611d4b565b9050919050565b600061229e82612271565b9050919050565b60006122b082612293565b9050919050565b6122c0816122a5565b82525050565b60006020820190506122db60008301846122b7565b92915050565b7f4e487b7100000000000000000000000000000000000000000000000000000000600052602260045260246000fd5b6000600282049050600182168061232857607f821691505b60208210810361233b5761233a6122e1565b5b50919050565b7f4552433732313a20617070726f76616c20746f2063757272656e74206f776e6560008201527f7200000000000000000000000000000000000000000000000000000000000000602082015250565b600061239d602183611c41565b91506123a882612341565b604082019050919050565b600060208201905081810360008301526123cc81612390565b9050919050565b7f4552433732313a20617070726f76652063616c6c6572206973206e6f7420746f60008201527f6b656e206f776e6572206e6f7220617070726f76656420666f7220616c6c0000602082015250565b600061242f603e83611c41565b915061243a826123d3565b604082019050919050565b6000602082019050818103600083015261245e81612422565b9050919050565b7f4552433732313a2063616c6c6572206973206e6f7420746f6b656e206f776e6560008201527f72206e6f7220617070726f766564000000000000000000000000000000000000602082015250565b60006124c1602e83611c41565b91506124cc82612465565b604082019050919050565b600060208201905081810360008301526124f0816124b4565b9050919050565b7f4552433732313a20696e76616c696420746f6b656e2049440000000000000000600082015250565b600061252d601883611c41565b9150612538826124f7565b602082019050919050565b6000602082019050818103600083015261255c81612520565b9050919050565b7f4552433732313a2061646472657373207a65726f206973206e6f74206120766160008201527f6c6964206f776e65720000000000000000000000000000000000000000000000602082015250565b60006125bf602983611c41565b91506125ca82612563565b604082019050919050565b600060208201905081810360008301526125ee816125b2565b9050919050565b600081905092915050565b600061260b82611c36565b61261581856125f5565b9350612625818560208601611c52565b80840191505092915050565b600061263d8285612600565b91506126498284612600565b91508190509392505050565b60008151905061266481611cf2565b92915050565b6000602082840312156126805761267f611b71565b5b600061268e84828501612655565b91505092915050565b60006126a38284612600565b915081905092915050565b7f4f776e61626c653a206e6577206f776e657220697320746865207a65726f206160008201527f6464726573730000000000000000000000000000000000000000000000000000602082015250565b600061270a602683611c41565b9150612715826126ae565b604082019050919050565b60006020820190508181036000830152612739816126fd565b9050919050565b7f4552433732313a207472616e736665722066726f6d20696e636f72726563742060008201527f6f776e6572000000000000000000000000000000000000000000000000000000602082015250565b600061279c602583611c41565b91506127a782612740565b604082019050919050565b600060208201905081810360008301526127cb8161278f565b9050919050565b7f4552433732313a207472616e7366657220746f20746865207a65726f2061646460008201527f7265737300000000000000000000000000000000000000000000000000000000602082015250565b600061282e602483611c41565b9150612839826127d2565b604082019050919050565b6000602082019050818103600083015261285d81612821565b9050919050565b7f4e487b7100000000000000000000000000000000000000000000000000000000600052601160045260246000fd5b600061289e82611ce8565b91506128a983611ce8565b92508282039050818111156128c1576128c0612864565b5b92915050565b60006128d282611ce8565b91506128dd83611ce8565b92508282019050808211156128f5576128f4612864565b5b92915050565b7f4f776e61626c653a2063616c6c6572206973206e6f7420746865206f776e6572600082015250565b6000612931602083611c41565b915061293c826128fb565b602082019050919050565b6000602082019050818103600083015261296081612924565b9050919050565b7f4552433732313a20617070726f766520746f2063616c6c657200000000000000600082015250565b600061299d601983611c41565b91506129a882612967565b602082019050919050565b600060208201905081810360008301526129cc81612990565b9050919050565b7f4552433732313a207472616e7366657220746f206e6f6e20455243373231526560008201527f63656976657220696d706c656d656e7465720000000000000000000000000000602082015250565b6000612a2f603283611c41565b9150612a3a826129d3565b604082019050919050565b60006020820190508181036000830152612a5e81612a22565b9050919050565b7f4552433732313a206d696e7420746f20746865207a65726f2061646472657373600082015250565b6000612a9b602083611c41565b9150612aa682612a65565b602082019050919050565b60006020820190508181036000830152612aca81612a8e565b9050919050565b7f4552433732313a20746f6b656e20616c7265616479206d696e74656400000000600082015250565b6000612b07601c83611c41565b9150612b1282612ad1565b602082019050919050565b60006020820190508181036000830152612b3681612afa565b9050919050565b7f45524337323155524953746f726167653a2055524920736574206f66206e6f6e60008201527f6578697374656e7420746f6b656e000000000000000000000000000000000000602082015250565b6000612b99602e83611c41565b9150612ba482612b3d565b604082019050919050565b60006020820190508181036000830152612bc881612b8c565b9050919050565b60008190508160005260206000209050919050565b60006020601f8301049050919050565b600082821b905092915050565b600060088302612c317fffffffffffffffffffffffffffffffffffffffffffffffffffffffffffffffff82612bf4565b612c3b8683612bf4565b95508019841693508086168417925050509392505050565b6000612c6e612c69612c6484611ce8565b612267565b611ce8565b9050919050565b6000819050919050565b612c8883612c53565b612c9c612c9482612c75565b848454612c01565b825550505050565b600090565b612cb1612ca4565b612cbc818484612c7f565b505050565b5b81811015612ce057612cd5600082612ca9565b600181019050612cc2565b5050565b601f821115612d2557612cf681612bcf565b612cff84612be4565b81016020851015612d0e578190505b612d22612d1a85612be4565b830182612cc1565b50505b505050565b600082821c905092915050565b6000612d4860001984600802612d2a565b1980831691505092915050565b6000612d618383612d37565b9150826002028217905092915050565b612d7a82611c36565b67ffffffffffffffff811115612d9357612d92611f33565b5b612d9d8254612310565b612da8828285612ce4565b600060209050601f831160018114612ddb5760008415612dc9578287015190505b612dd38582612d55565b865550612e3b565b601f198416612de986612bcf565b60005b82811015612e1157848901518255600182019150602085019450602081019050612dec565b86831015612e2e5784890151612e2a601f891682612d37565b8355505b6001600288020188555050505b505050505050565b600081519050919050565b600082825260208201905092915050565b6000612e6a82612e43565b612e748185612e4e565b9350612e84818560208601611c52565b612e8d81611c7c565b840191505092915050565b6000608082019050612ead6000830187611d7d565b612eba6020830186611d7d565b612ec76040830185611e13565b8181036060830152612ed98184612e5f565b905095945050505050565b600081519050612ef381611ba7565b92915050565b600060208284031215612f0f57612f0e611b71565b5b6000612f1d84828501612ee4565b91505092915050565b6000612f3182611ce8565b91507fffffffffffffffffffffffffffffffffffffffffffffffffffffffffffffffff8203612f6357612f62612864565b5b600182019050919050565b7f4e487b7100000000000000000000000000000000000000000000000000000000600052601260045260246000fd5b6000612fa882611ce8565b9150612fb383611ce8565b925082612fc357612fc2612f6e565b5b828204905092915050565b6000612fd982611ce8565b9150612fe483611ce8565b925082612ff457612ff3612f6e565b5b828206905092915050565b7f4e487b7100000000000000000000000000000000000000000000000000000000600052603260045260246000fdfea264697066735822122001cf71144553806ff984d40ddd5b340279b967c2f45922ad495cd5ca0cdf693e64736f6c63430008100033",
  "immutableReferences": {},
  "source": "// SPDX-License-Identifier: MIT\n\npragma solidity ^0.8.7;\n\nimport \"../node_modules/@openzeppelin/contracts/access/Ownable.sol\";\nimport \"../node_modules/@openzeppelin/contracts/token/ERC721/ERC721.sol\";\nimport \"../node_modules/@openzeppelin/contracts/token/ERC721/extensions/ERC721URIStorage.sol\";\nimport \"../node_modules/@openzeppelin/contracts/utils/Counters.sol\";\nimport \"../node_modules/@openzeppelin/contracts/token/ERC20/IERC20.sol\";\n\n// ERC721URIStorage : tokenURI  ,    JSON tokenURI .\n// Ownable :   , NFT       ,\n//     onlyOwner Modifier  \ncontract MintNFT is ERC721URIStorage, Ownable {\n    using Counters for Counters.Counter;\n    // Counters.Counter  _tokenIds . NFT  _tokenIds 1  NFT id .\n    // Counter uint256  , current(), increment(), decrement(), reset()    .\n    Counters.Counter private _tokenIds;\n    mapping(string => uint256) public getToken;\n    IERC20 public token;\n    uint256 public nftPrice;\n\n    //  ERC721  ,   ,   \n    constructor() ERC721(\"ArtNFT\", \"ART\") {\n        nftPrice = 10e18;\n    }\n\n    // NFT  , NFT json(, , URI,  )    tokenURI  .\n    function mintNFT(address to, string memory tokenURI)\n        public\n        returns (uint256)\n    {\n        require(token.balanceOf(to) > nftPrice);\n\n        // NFT      tokenIds 1 ,\n        _tokenIds.increment();\n        //    NFT  ID  ( 1   tokenI\n        uint256 newItemId = _tokenIds.current();\n        _mint(to, newItemId);\n        _setTokenURI(newItemId, tokenURI);\n        getToken[tokenURI] = newItemId;\n\n        return newItemId;\n    }\n}\n",
  "sourcePath": "/Users/kunstar/nft_project/nft/server/contract/contracts/MintNFT.sol",
  "compiler": {
    "name": "solc",
    "version": "0.8.16+commit.07a7930e.Emscripten.clang"
  },
  "schemaVersion": "3.4.8",
  "updatedAt": "2022-08-28T18:53:46.808Z",
  "networkType": "ethereum",
  "devdoc": {
    "kind": "dev",
    "methods": {
      "approve(address,uint256)": {
        "details": "See {IERC721-approve}."
      },
      "balanceOf(address)": {
        "details": "See {IERC721-balanceOf}."
      },
      "getApproved(uint256)": {
        "details": "See {IERC721-getApproved}."
      },
      "isApprovedForAll(address,address)": {
        "details": "See {IERC721-isApprovedForAll}."
      },
      "name()": {
        "details": "See {IERC721Metadata-name}."
      },
      "owner()": {
        "details": "Returns the address of the current owner."
      },
      "ownerOf(uint256)": {
        "details": "See {IERC721-ownerOf}."
      },
      "renounceOwnership()": {
        "details": "Leaves the contract without owner. It will not be possible to call `onlyOwner` functions anymore. Can only be called by the current owner. NOTE: Renouncing ownership will leave the contract without an owner, thereby removing any functionality that is only available to the owner."
      },
      "safeTransferFrom(address,address,uint256)": {
        "details": "See {IERC721-safeTransferFrom}."
      },
      "safeTransferFrom(address,address,uint256,bytes)": {
        "details": "See {IERC721-safeTransferFrom}."
      },
      "setApprovalForAll(address,bool)": {
        "details": "See {IERC721-setApprovalForAll}."
      },
      "supportsInterface(bytes4)": {
        "details": "See {IERC165-supportsInterface}."
      },
      "symbol()": {
        "details": "See {IERC721Metadata-symbol}."
      },
      "tokenURI(uint256)": {
        "details": "See {IERC721Metadata-tokenURI}."
      },
      "transferFrom(address,address,uint256)": {
        "details": "See {IERC721-transferFrom}."
      },
      "transferOwnership(address)": {
        "details": "Transfers ownership of the contract to a new account (`newOwner`). Can only be called by the current owner."
      }
    },
    "version": 1
  },
  "userdoc": {
    "kind": "user",
    "methods": {},
    "version": 1
  }
}