{
  "contractName": "MintNFT",
  "abi": [
    {
      "inputs": [],
      "stateMutability": "nonpayable",
      "type": "constructor"
    },
    {
      "anonymous": false,
      "inputs": [
        {
          "indexed": true,
          "internalType": "address",
          "name": "owner",
          "type": "address"
        },
        {
          "indexed": true,
          "internalType": "address",
          "name": "approved",
          "type": "address"
        },
        {
          "indexed": true,
          "internalType": "uint256",
          "name": "tokenId",
          "type": "uint256"
        }
      ],
      "name": "Approval",
      "type": "event"
    },
    {
      "anonymous": false,
      "inputs": [
        {
          "indexed": true,
          "internalType": "address",
          "name": "owner",
          "type": "address"
        },
        {
          "indexed": true,
          "internalType": "address",
          "name": "operator",
          "type": "address"
        },
        {
          "indexed": false,
          "internalType": "bool",
          "name": "approved",
          "type": "bool"
        }
      ],
      "name": "ApprovalForAll",
      "type": "event"
    },
    {
      "anonymous": false,
      "inputs": [
        {
          "indexed": true,
          "internalType": "address",
          "name": "previousOwner",
          "type": "address"
        },
        {
          "indexed": true,
          "internalType": "address",
          "name": "newOwner",
          "type": "address"
        }
      ],
      "name": "OwnershipTransferred",
      "type": "event"
    },
    {
      "anonymous": false,
      "inputs": [
        {
          "indexed": true,
          "internalType": "address",
          "name": "from",
          "type": "address"
        },
        {
          "indexed": true,
          "internalType": "address",
          "name": "to",
          "type": "address"
        },
        {
          "indexed": true,
          "internalType": "uint256",
          "name": "tokenId",
          "type": "uint256"
        }
      ],
      "name": "Transfer",
      "type": "event"
    },
    {
      "inputs": [
        {
          "internalType": "address",
          "name": "to",
          "type": "address"
        },
        {
          "internalType": "uint256",
          "name": "tokenId",
          "type": "uint256"
        }
      ],
      "name": "approve",
      "outputs": [],
      "stateMutability": "nonpayable",
      "type": "function"
    },
    {
      "inputs": [
        {
          "internalType": "address",
          "name": "owner",
          "type": "address"
        }
      ],
      "name": "balanceOf",
      "outputs": [
        {
          "internalType": "uint256",
          "name": "",
          "type": "uint256"
        }
      ],
      "stateMutability": "view",
      "type": "function",
      "constant": true
    },
    {
      "inputs": [
        {
          "internalType": "uint256",
          "name": "tokenId",
          "type": "uint256"
        }
      ],
      "name": "getApproved",
      "outputs": [
        {
          "internalType": "address",
          "name": "",
          "type": "address"
        }
      ],
      "stateMutability": "view",
      "type": "function",
      "constant": true
    },
    {
      "inputs": [
        {
          "internalType": "address",
          "name": "owner",
          "type": "address"
        },
        {
          "internalType": "address",
          "name": "operator",
          "type": "address"
        }
      ],
      "name": "isApprovedForAll",
      "outputs": [
        {
          "internalType": "bool",
          "name": "",
          "type": "bool"
        }
      ],
      "stateMutability": "view",
      "type": "function",
      "constant": true
    },
    {
      "inputs": [],
      "name": "name",
      "outputs": [
        {
          "internalType": "string",
          "name": "",
          "type": "string"
        }
      ],
      "stateMutability": "view",
      "type": "function",
      "constant": true
    },
    {
      "inputs": [],
      "name": "owner",
      "outputs": [
        {
          "internalType": "address",
          "name": "",
          "type": "address"
        }
      ],
      "stateMutability": "view",
      "type": "function",
      "constant": true
    },
    {
      "inputs": [
        {
          "internalType": "uint256",
          "name": "tokenId",
          "type": "uint256"
        }
      ],
      "name": "ownerOf",
      "outputs": [
        {
          "internalType": "address",
          "name": "",
          "type": "address"
        }
      ],
      "stateMutability": "view",
      "type": "function",
      "constant": true
    },
    {
      "inputs": [],
      "name": "renounceOwnership",
      "outputs": [],
      "stateMutability": "nonpayable",
      "type": "function"
    },
    {
      "inputs": [
        {
          "internalType": "address",
          "name": "from",
          "type": "address"
        },
        {
          "internalType": "address",
          "name": "to",
          "type": "address"
        },
        {
          "internalType": "uint256",
          "name": "tokenId",
          "type": "uint256"
        }
      ],
      "name": "safeTransferFrom",
      "outputs": [],
      "stateMutability": "nonpayable",
      "type": "function"
    },
    {
      "inputs": [
        {
          "internalType": "address",
          "name": "from",
          "type": "address"
        },
        {
          "internalType": "address",
          "name": "to",
          "type": "address"
        },
        {
          "internalType": "uint256",
          "name": "tokenId",
          "type": "uint256"
        },
        {
          "internalType": "bytes",
          "name": "data",
          "type": "bytes"
        }
      ],
      "name": "safeTransferFrom",
      "outputs": [],
      "stateMutability": "nonpayable",
      "type": "function"
    },
    {
      "inputs": [
        {
          "internalType": "address",
          "name": "operator",
          "type": "address"
        },
        {
          "internalType": "bool",
          "name": "approved",
          "type": "bool"
        }
      ],
      "name": "setApprovalForAll",
      "outputs": [],
      "stateMutability": "nonpayable",
      "type": "function"
    },
    {
      "inputs": [
        {
          "internalType": "bytes4",
          "name": "interfaceId",
          "type": "bytes4"
        }
      ],
      "name": "supportsInterface",
      "outputs": [
        {
          "internalType": "bool",
          "name": "",
          "type": "bool"
        }
      ],
      "stateMutability": "view",
      "type": "function",
      "constant": true
    },
    {
      "inputs": [],
      "name": "symbol",
      "outputs": [
        {
          "internalType": "string",
          "name": "",
          "type": "string"
        }
      ],
      "stateMutability": "view",
      "type": "function",
      "constant": true
    },
    {
      "inputs": [
        {
          "internalType": "uint256",
          "name": "tokenId",
          "type": "uint256"
        }
      ],
      "name": "tokenURI",
      "outputs": [
        {
          "internalType": "string",
          "name": "",
          "type": "string"
        }
      ],
      "stateMutability": "view",
      "type": "function",
      "constant": true
    },
    {
      "inputs": [
        {
          "internalType": "address",
          "name": "from",
          "type": "address"
        },
        {
          "internalType": "address",
          "name": "to",
          "type": "address"
        },
        {
          "internalType": "uint256",
          "name": "tokenId",
          "type": "uint256"
        }
      ],
      "name": "transferFrom",
      "outputs": [],
      "stateMutability": "nonpayable",
      "type": "function"
    },
    {
      "inputs": [
        {
          "internalType": "address",
          "name": "newOwner",
          "type": "address"
        }
      ],
      "name": "transferOwnership",
      "outputs": [],
      "stateMutability": "nonpayable",
      "type": "function"
    },
    {
      "inputs": [
        {
          "internalType": "address",
          "name": "to",
          "type": "address"
        },
        {
          "internalType": "string",
          "name": "tokenURI",
          "type": "string"
        }
      ],
      "name": "mintNFT",
      "outputs": [
        {
          "internalType": "uint256",
          "name": "",
          "type": "uint256"
        }
      ],
      "stateMutability": "nonpayable",
      "type": "function"
    }
  ],
  "bytecode": "0x60806040523480156200001157600080fd5b506040518060400160405280600681526020017f4172744e465400000000000000000000000000000000000000000000000000008152506040518060400160405280600381526020017f415254000000000000000000000000000000000000000000000000000000000081525081600090816200008f919062000412565b508060019081620000a1919062000412565b505050620000c4620000b8620000ca60201b60201c565b620000d260201b60201c565b620004f9565b600033905090565b6000600760009054906101000a900473ffffffffffffffffffffffffffffffffffffffff16905081600760006101000a81548173ffffffffffffffffffffffffffffffffffffffff021916908373ffffffffffffffffffffffffffffffffffffffff1602179055508173ffffffffffffffffffffffffffffffffffffffff168173ffffffffffffffffffffffffffffffffffffffff167f8be0079c531659141344cd1fd0a4f28419497f9722a3daafe3b4186f6b6457e060405160405180910390a35050565b600081519050919050565b7f4e487b7100000000000000000000000000000000000000000000000000000000600052604160045260246000fd5b7f4e487b7100000000000000000000000000000000000000000000000000000000600052602260045260246000fd5b600060028204905060018216806200021a57607f821691505b60208210810362000230576200022f620001d2565b5b50919050565b60008190508160005260206000209050919050565b60006020601f8301049050919050565b600082821b905092915050565b6000600883026200029a7fffffffffffffffffffffffffffffffffffffffffffffffffffffffffffffffff826200025b565b620002a686836200025b565b95508019841693508086168417925050509392505050565b6000819050919050565b6000819050919050565b6000620002f3620002ed620002e784620002be565b620002c8565b620002be565b9050919050565b6000819050919050565b6200030f83620002d2565b620003276200031e82620002fa565b84845462000268565b825550505050565b600090565b6200033e6200032f565b6200034b81848462000304565b505050565b5b8181101562000373576200036760008262000334565b60018101905062000351565b5050565b601f821115620003c2576200038c8162000236565b62000397846200024b565b81016020851015620003a7578190505b620003bf620003b6856200024b565b83018262000350565b50505b505050565b600082821c905092915050565b6000620003e760001984600802620003c7565b1980831691505092915050565b6000620004028383620003d4565b9150826002028217905092915050565b6200041d8262000198565b67ffffffffffffffff811115620004395762000438620001a3565b5b62000445825462000201565b6200045282828562000377565b600060209050601f8311600181146200048a576000841562000475578287015190505b620004818582620003f4565b865550620004f1565b601f1984166200049a8662000236565b60005b82811015620004c4578489015182556001820191506020850194506020810190506200049d565b86831015620004e45784890151620004e0601f891682620003d4565b8355505b6001600288020188555050505b505050505050565b612d9f80620005096000396000f3fe608060405234801561001057600080fd5b506004361061010b5760003560e01c8063715018a6116100a2578063b88d4fde11610071578063b88d4fde146102a4578063c87b56dd146102c0578063e985e9c5146102f0578063eacabe1414610320578063f2fde38b146103505761010b565b8063715018a6146102425780638da5cb5b1461024c57806395d89b411461026a578063a22cb465146102885761010b565b806323b872dd116100de57806323b872dd146101aa57806342842e0e146101c65780636352211e146101e257806370a08231146102125761010b565b806301ffc9a71461011057806306fdde0314610140578063081812fc1461015e578063095ea7b31461018e575b600080fd5b61012a60048036038101906101259190611a20565b61036c565b6040516101379190611a68565b60405180910390f35b61014861044e565b6040516101559190611b13565b60405180910390f35b61017860048036038101906101739190611b6b565b6104e0565b6040516101859190611bd9565b60405180910390f35b6101a860048036038101906101a39190611c20565b610526565b005b6101c460048036038101906101bf9190611c60565b61063d565b005b6101e060048036038101906101db9190611c60565b61069d565b005b6101fc60048036038101906101f79190611b6b565b6106bd565b6040516102099190611bd9565b60405180910390f35b61022c60048036038101906102279190611cb3565b61076e565b6040516102399190611cef565b60405180910390f35b61024a610825565b005b610254610839565b6040516102619190611bd9565b60405180910390f35b610272610863565b60405161027f9190611b13565b60405180910390f35b6102a2600480360381019061029d9190611d36565b6108f5565b005b6102be60048036038101906102b99190611eab565b61090b565b005b6102da60048036038101906102d59190611b6b565b61096d565b6040516102e79190611b13565b60405180910390f35b61030a60048036038101906103059190611f2e565b610a7f565b6040516103179190611a68565b60405180910390f35b61033a6004803603810190610335919061200f565b610b13565b6040516103479190611cef565b60405180910390f35b61036a60048036038101906103659190611cb3565b610b4b565b005b60007f80ac58cd000000000000000000000000000000000000000000000000000000007bffffffffffffffffffffffffffffffffffffffffffffffffffffffff1916827bffffffffffffffffffffffffffffffffffffffffffffffffffffffff1916148061043757507f5b5e139f000000000000000000000000000000000000000000000000000000007bffffffffffffffffffffffffffffffffffffffffffffffffffffffff1916827bffffffffffffffffffffffffffffffffffffffffffffffffffffffff1916145b80610447575061044682610bce565b5b9050919050565b60606000805461045d9061209a565b80601f01602080910402602001604051908101604052809291908181526020018280546104899061209a565b80156104d65780601f106104ab576101008083540402835291602001916104d6565b820191906000526020600020905b8154815290600101906020018083116104b957829003601f168201915b5050505050905090565b60006104eb82610c38565b6004600083815260200190815260200160002060009054906101000a900473ffffffffffffffffffffffffffffffffffffffff169050919050565b6000610531826106bd565b90508073ffffffffffffffffffffffffffffffffffffffff168373ffffffffffffffffffffffffffffffffffffffff16036105a1576040517f08c379a00000000000000000000000000000000000000000000000000000000081526004016105989061213d565b60405180910390fd5b8073ffffffffffffffffffffffffffffffffffffffff166105c0610c83565b73ffffffffffffffffffffffffffffffffffffffff1614806105ef57506105ee816105e9610c83565b610a7f565b5b61062e576040517f08c379a0000000000000000000000000000000000000000000000000000000008152600401610625906121cf565b60405180910390fd5b6106388383610c8b565b505050565b61064e610648610c83565b82610d44565b61068d576040517f08c379a000000000000000000000000000000000000000000000000000000000815260040161068490612261565b60405180910390fd5b610698838383610dd9565b505050565b6106b88383836040518060200160405280600081525061090b565b505050565b6000806002600084815260200190815260200160002060009054906101000a900473ffffffffffffffffffffffffffffffffffffffff169050600073ffffffffffffffffffffffffffffffffffffffff168173ffffffffffffffffffffffffffffffffffffffff1603610765576040517f08c379a000000000000000000000000000000000000000000000000000000000815260040161075c906122cd565b60405180910390fd5b80915050919050565b60008073ffffffffffffffffffffffffffffffffffffffff168273ffffffffffffffffffffffffffffffffffffffff16036107de576040517f08c379a00000000000000000000000000000000000000000000000000000000081526004016107d59061235f565b60405180910390fd5b600360008373ffffffffffffffffffffffffffffffffffffffff1673ffffffffffffffffffffffffffffffffffffffff168152602001908152602001600020549050919050565b61082d61103f565b61083760006110bd565b565b6000600760009054906101000a900473ffffffffffffffffffffffffffffffffffffffff16905090565b6060600180546108729061209a565b80601f016020809104026020016040519081016040528092919081815260200182805461089e9061209a565b80156108eb5780601f106108c0576101008083540402835291602001916108eb565b820191906000526020600020905b8154815290600101906020018083116108ce57829003601f168201915b5050505050905090565b610907610900610c83565b8383611183565b5050565b61091c610916610c83565b83610d44565b61095b576040517f08c379a000000000000000000000000000000000000000000000000000000000815260040161095290612261565b60405180910390fd5b610967848484846112ef565b50505050565b606061097882610c38565b60006006600084815260200190815260200160002080546109989061209a565b80601f01602080910402602001604051908101604052809291908181526020018280546109c49061209a565b8015610a115780601f106109e657610100808354040283529160200191610a11565b820191906000526020600020905b8154815290600101906020018083116109f457829003601f168201915b505050505090506000610a2261134b565b90506000815103610a37578192505050610a7a565b600082511115610a6c578082604051602001610a549291906123bb565b60405160208183030381529060405292505050610a7a565b610a7584611362565b925050505b919050565b6000600560008473ffffffffffffffffffffffffffffffffffffffff1673ffffffffffffffffffffffffffffffffffffffff16815260200190815260200160002060008373ffffffffffffffffffffffffffffffffffffffff1673ffffffffffffffffffffffffffffffffffffffff16815260200190815260200160002060009054906101000a900460ff16905092915050565b6000610b1f60086113ca565b6000610b2b60086113e0565b9050610b3784826113ee565b610b4181846115c7565b8091505092915050565b610b5361103f565b600073ffffffffffffffffffffffffffffffffffffffff168173ffffffffffffffffffffffffffffffffffffffff1603610bc2576040517f08c379a0000000000000000000000000000000000000000000000000000000008152600401610bb990612451565b60405180910390fd5b610bcb816110bd565b50565b60007f01ffc9a7000000000000000000000000000000000000000000000000000000007bffffffffffffffffffffffffffffffffffffffffffffffffffffffff1916827bffffffffffffffffffffffffffffffffffffffffffffffffffffffff1916149050919050565b610c4181611634565b610c80576040517f08c379a0000000000000000000000000000000000000000000000000000000008152600401610c77906122cd565b60405180910390fd5b50565b600033905090565b816004600083815260200190815260200160002060006101000a81548173ffffffffffffffffffffffffffffffffffffffff021916908373ffffffffffffffffffffffffffffffffffffffff160217905550808273ffffffffffffffffffffffffffffffffffffffff16610cfe836106bd565b73ffffffffffffffffffffffffffffffffffffffff167f8c5be1e5ebec7d5bd14f71427d1e84f3dd0314c0f7b2291e5b200ac8c7c3b92560405160405180910390a45050565b600080610d50836106bd565b90508073ffffffffffffffffffffffffffffffffffffffff168473ffffffffffffffffffffffffffffffffffffffff161480610d925750610d918185610a7f565b5b80610dd057508373ffffffffffffffffffffffffffffffffffffffff16610db8846104e0565b73ffffffffffffffffffffffffffffffffffffffff16145b91505092915050565b8273ffffffffffffffffffffffffffffffffffffffff16610df9826106bd565b73ffffffffffffffffffffffffffffffffffffffff1614610e4f576040517f08c379a0000000000000000000000000000000000000000000000000000000008152600401610e46906124e3565b60405180910390fd5b600073ffffffffffffffffffffffffffffffffffffffff168273ffffffffffffffffffffffffffffffffffffffff1603610ebe576040517f08c379a0000000000000000000000000000000000000000000000000000000008152600401610eb590612575565b60405180910390fd5b610ec98383836116a0565b610ed4600082610c8b565b6001600360008573ffffffffffffffffffffffffffffffffffffffff1673ffffffffffffffffffffffffffffffffffffffff1681526020019081526020016000206000828254610f2491906125c4565b925050819055506001600360008473ffffffffffffffffffffffffffffffffffffffff1673ffffffffffffffffffffffffffffffffffffffff1681526020019081526020016000206000828254610f7b91906125f8565b92505081905550816002600083815260200190815260200160002060006101000a81548173ffffffffffffffffffffffffffffffffffffffff021916908373ffffffffffffffffffffffffffffffffffffffff160217905550808273ffffffffffffffffffffffffffffffffffffffff168473ffffffffffffffffffffffffffffffffffffffff167fddf252ad1be2c89b69c2b068fc378daa952ba7f163c4a11628f55a4df523b3ef60405160405180910390a461103a8383836116a5565b505050565b611047610c83565b73ffffffffffffffffffffffffffffffffffffffff16611065610839565b73ffffffffffffffffffffffffffffffffffffffff16146110bb576040517f08c379a00000000000000000000000000000000000000000000000000000000081526004016110b290612678565b60405180910390fd5b565b6000600760009054906101000a900473ffffffffffffffffffffffffffffffffffffffff16905081600760006101000a81548173ffffffffffffffffffffffffffffffffffffffff021916908373ffffffffffffffffffffffffffffffffffffffff1602179055508173ffffffffffffffffffffffffffffffffffffffff168173ffffffffffffffffffffffffffffffffffffffff167f8be0079c531659141344cd1fd0a4f28419497f9722a3daafe3b4186f6b6457e060405160405180910390a35050565b8173ffffffffffffffffffffffffffffffffffffffff168373ffffffffffffffffffffffffffffffffffffffff16036111f1576040517f08c379a00000000000000000000000000000000000000000000000000000000081526004016111e8906126e4565b60405180910390fd5b80600560008573ffffffffffffffffffffffffffffffffffffffff1673ffffffffffffffffffffffffffffffffffffffff16815260200190815260200160002060008473ffffffffffffffffffffffffffffffffffffffff1673ffffffffffffffffffffffffffffffffffffffff16815260200190815260200160002060006101000a81548160ff0219169083151502179055508173ffffffffffffffffffffffffffffffffffffffff168373ffffffffffffffffffffffffffffffffffffffff167f17307eab39ab6107e8899845ad3d59bd9653f200f220920489ca2b5937696c31836040516112e29190611a68565b60405180910390a3505050565b6112fa848484610dd9565b611306848484846116aa565b611345576040517f08c379a000000000000000000000000000000000000000000000000000000000815260040161133c90612776565b60405180910390fd5b50505050565b606060405180602001604052806000815250905090565b606061136d82610c38565b600061137761134b565b9050600081511161139757604051806020016040528060008152506113c2565b806113a184611831565b6040516020016113b29291906123bb565b6040516020818303038152906040525b915050919050565b6001816000016000828254019250508190555050565b600081600001549050919050565b600073ffffffffffffffffffffffffffffffffffffffff168273ffffffffffffffffffffffffffffffffffffffff160361145d576040517f08c379a0000000000000000000000000000000000000000000000000000000008152600401611454906127e2565b60405180910390fd5b61146681611634565b156114a6576040517f08c379a000000000000000000000000000000000000000000000000000000000815260040161149d9061284e565b60405180910390fd5b6114b2600083836116a0565b6001600360008473ffffffffffffffffffffffffffffffffffffffff1673ffffffffffffffffffffffffffffffffffffffff168152602001908152602001600020600082825461150291906125f8565b92505081905550816002600083815260200190815260200160002060006101000a81548173ffffffffffffffffffffffffffffffffffffffff021916908373ffffffffffffffffffffffffffffffffffffffff160217905550808273ffffffffffffffffffffffffffffffffffffffff16600073ffffffffffffffffffffffffffffffffffffffff167fddf252ad1be2c89b69c2b068fc378daa952ba7f163c4a11628f55a4df523b3ef60405160405180910390a46115c3600083836116a5565b5050565b6115d082611634565b61160f576040517f08c379a0000000000000000000000000000000000000000000000000000000008152600401611606906128e0565b60405180910390fd5b8060066000848152602001908152602001600020908161162f9190612aac565b505050565b60008073ffffffffffffffffffffffffffffffffffffffff166002600084815260200190815260200160002060009054906101000a900473ffffffffffffffffffffffffffffffffffffffff1673ffffffffffffffffffffffffffffffffffffffff1614159050919050565b505050565b505050565b60006116cb8473ffffffffffffffffffffffffffffffffffffffff16611991565b15611824578373ffffffffffffffffffffffffffffffffffffffff1663150b7a026116f4610c83565b8786866040518563ffffffff1660e01b81526004016117169493929190612bd3565b6020604051808303816000875af192505050801561175257506040513d601f19601f8201168201806040525081019061174f9190612c34565b60015b6117d4573d8060008114611782576040519150601f19603f3d011682016040523d82523d6000602084013e611787565b606091505b5060008151036117cc576040517f08c379a00000000000000000000000000000000000000000000000000000000081526004016117c390612776565b60405180910390fd5b805181602001fd5b63150b7a0260e01b7bffffffffffffffffffffffffffffffffffffffffffffffffffffffff1916817bffffffffffffffffffffffffffffffffffffffffffffffffffffffff191614915050611829565b600190505b949350505050565b606060008203611878576040518060400160405280600181526020017f3000000000000000000000000000000000000000000000000000000000000000815250905061198c565b600082905060005b600082146118aa57808061189390612c61565b915050600a826118a39190612cd8565b9150611880565b60008167ffffffffffffffff8111156118c6576118c5611d80565b5b6040519080825280601f01601f1916602001820160405280156118f85781602001600182028036833780820191505090505b5090505b600085146119855760018261191191906125c4565b9150600a856119209190612d09565b603061192c91906125f8565b60f81b81838151811061194257611941612d3a565b5b60200101907effffffffffffffffffffffffffffffffffffffffffffffffffffffffffffff1916908160001a905350600a8561197e9190612cd8565b94506118fc565b8093505050505b919050565b6000808273ffffffffffffffffffffffffffffffffffffffff163b119050919050565b6000604051905090565b600080fd5b600080fd5b60007fffffffff0000000000000000000000000000000000000000000000000000000082169050919050565b6119fd816119c8565b8114611a0857600080fd5b50565b600081359050611a1a816119f4565b92915050565b600060208284031215611a3657611a356119be565b5b6000611a4484828501611a0b565b91505092915050565b60008115159050919050565b611a6281611a4d565b82525050565b6000602082019050611a7d6000830184611a59565b92915050565b600081519050919050565b600082825260208201905092915050565b60005b83811015611abd578082015181840152602081019050611aa2565b60008484015250505050565b6000601f19601f8301169050919050565b6000611ae582611a83565b611aef8185611a8e565b9350611aff818560208601611a9f565b611b0881611ac9565b840191505092915050565b60006020820190508181036000830152611b2d8184611ada565b905092915050565b6000819050919050565b611b4881611b35565b8114611b5357600080fd5b50565b600081359050611b6581611b3f565b92915050565b600060208284031215611b8157611b806119be565b5b6000611b8f84828501611b56565b91505092915050565b600073ffffffffffffffffffffffffffffffffffffffff82169050919050565b6000611bc382611b98565b9050919050565b611bd381611bb8565b82525050565b6000602082019050611bee6000830184611bca565b92915050565b611bfd81611bb8565b8114611c0857600080fd5b50565b600081359050611c1a81611bf4565b92915050565b60008060408385031215611c3757611c366119be565b5b6000611c4585828601611c0b565b9250506020611c5685828601611b56565b9150509250929050565b600080600060608486031215611c7957611c786119be565b5b6000611c8786828701611c0b565b9350506020611c9886828701611c0b565b9250506040611ca986828701611b56565b9150509250925092565b600060208284031215611cc957611cc86119be565b5b6000611cd784828501611c0b565b91505092915050565b611ce981611b35565b82525050565b6000602082019050611d046000830184611ce0565b92915050565b611d1381611a4d565b8114611d1e57600080fd5b50565b600081359050611d3081611d0a565b92915050565b60008060408385031215611d4d57611d4c6119be565b5b6000611d5b85828601611c0b565b9250506020611d6c85828601611d21565b9150509250929050565b600080fd5b600080fd5b7f4e487b7100000000000000000000000000000000000000000000000000000000600052604160045260246000fd5b611db882611ac9565b810181811067ffffffffffffffff82111715611dd757611dd6611d80565b5b80604052505050565b6000611dea6119b4565b9050611df68282611daf565b919050565b600067ffffffffffffffff821115611e1657611e15611d80565b5b611e1f82611ac9565b9050602081019050919050565b82818337600083830152505050565b6000611e4e611e4984611dfb565b611de0565b905082815260208101848484011115611e6a57611e69611d7b565b5b611e75848285611e2c565b509392505050565b600082601f830112611e9257611e91611d76565b5b8135611ea2848260208601611e3b565b91505092915050565b60008060008060808587031215611ec557611ec46119be565b5b6000611ed387828801611c0b565b9450506020611ee487828801611c0b565b9350506040611ef587828801611b56565b925050606085013567ffffffffffffffff811115611f1657611f156119c3565b5b611f2287828801611e7d565b91505092959194509250565b60008060408385031215611f4557611f446119be565b5b6000611f5385828601611c0b565b9250506020611f6485828601611c0b565b9150509250929050565b600067ffffffffffffffff821115611f8957611f88611d80565b5b611f9282611ac9565b9050602081019050919050565b6000611fb2611fad84611f6e565b611de0565b905082815260208101848484011115611fce57611fcd611d7b565b5b611fd9848285611e2c565b509392505050565b600082601f830112611ff657611ff5611d76565b5b8135612006848260208601611f9f565b91505092915050565b60008060408385031215612026576120256119be565b5b600061203485828601611c0b565b925050602083013567ffffffffffffffff811115612055576120546119c3565b5b61206185828601611fe1565b9150509250929050565b7f4e487b7100000000000000000000000000000000000000000000000000000000600052602260045260246000fd5b600060028204905060018216806120b257607f821691505b6020821081036120c5576120c461206b565b5b50919050565b7f4552433732313a20617070726f76616c20746f2063757272656e74206f776e6560008201527f7200000000000000000000000000000000000000000000000000000000000000602082015250565b6000612127602183611a8e565b9150612132826120cb565b604082019050919050565b600060208201905081810360008301526121568161211a565b9050919050565b7f4552433732313a20617070726f76652063616c6c6572206973206e6f7420746f60008201527f6b656e206f776e6572206e6f7220617070726f76656420666f7220616c6c0000602082015250565b60006121b9603e83611a8e565b91506121c48261215d565b604082019050919050565b600060208201905081810360008301526121e8816121ac565b9050919050565b7f4552433732313a2063616c6c6572206973206e6f7420746f6b656e206f776e6560008201527f72206e6f7220617070726f766564000000000000000000000000000000000000602082015250565b600061224b602e83611a8e565b9150612256826121ef565b604082019050919050565b6000602082019050818103600083015261227a8161223e565b9050919050565b7f4552433732313a20696e76616c696420746f6b656e2049440000000000000000600082015250565b60006122b7601883611a8e565b91506122c282612281565b602082019050919050565b600060208201905081810360008301526122e6816122aa565b9050919050565b7f4552433732313a2061646472657373207a65726f206973206e6f74206120766160008201527f6c6964206f776e65720000000000000000000000000000000000000000000000602082015250565b6000612349602983611a8e565b9150612354826122ed565b604082019050919050565b600060208201905081810360008301526123788161233c565b9050919050565b600081905092915050565b600061239582611a83565b61239f818561237f565b93506123af818560208601611a9f565b80840191505092915050565b60006123c7828561238a565b91506123d3828461238a565b91508190509392505050565b7f4f776e61626c653a206e6577206f776e657220697320746865207a65726f206160008201527f6464726573730000000000000000000000000000000000000000000000000000602082015250565b600061243b602683611a8e565b9150612446826123df565b604082019050919050565b6000602082019050818103600083015261246a8161242e565b9050919050565b7f4552433732313a207472616e736665722066726f6d20696e636f72726563742060008201527f6f776e6572000000000000000000000000000000000000000000000000000000602082015250565b60006124cd602583611a8e565b91506124d882612471565b604082019050919050565b600060208201905081810360008301526124fc816124c0565b9050919050565b7f4552433732313a207472616e7366657220746f20746865207a65726f2061646460008201527f7265737300000000000000000000000000000000000000000000000000000000602082015250565b600061255f602483611a8e565b915061256a82612503565b604082019050919050565b6000602082019050818103600083015261258e81612552565b9050919050565b7f4e487b7100000000000000000000000000000000000000000000000000000000600052601160045260246000fd5b60006125cf82611b35565b91506125da83611b35565b92508282039050818111156125f2576125f1612595565b5b92915050565b600061260382611b35565b915061260e83611b35565b925082820190508082111561262657612625612595565b5b92915050565b7f4f776e61626c653a2063616c6c6572206973206e6f7420746865206f776e6572600082015250565b6000612662602083611a8e565b915061266d8261262c565b602082019050919050565b6000602082019050818103600083015261269181612655565b9050919050565b7f4552433732313a20617070726f766520746f2063616c6c657200000000000000600082015250565b60006126ce601983611a8e565b91506126d982612698565b602082019050919050565b600060208201905081810360008301526126fd816126c1565b9050919050565b7f4552433732313a207472616e7366657220746f206e6f6e20455243373231526560008201527f63656976657220696d706c656d656e7465720000000000000000000000000000602082015250565b6000612760603283611a8e565b915061276b82612704565b604082019050919050565b6000602082019050818103600083015261278f81612753565b9050919050565b7f4552433732313a206d696e7420746f20746865207a65726f2061646472657373600082015250565b60006127cc602083611a8e565b91506127d782612796565b602082019050919050565b600060208201905081810360008301526127fb816127bf565b9050919050565b7f4552433732313a20746f6b656e20616c7265616479206d696e74656400000000600082015250565b6000612838601c83611a8e565b915061284382612802565b602082019050919050565b600060208201905081810360008301526128678161282b565b9050919050565b7f45524337323155524953746f726167653a2055524920736574206f66206e6f6e60008201527f6578697374656e7420746f6b656e000000000000000000000000000000000000602082015250565b60006128ca602e83611a8e565b91506128d58261286e565b604082019050919050565b600060208201905081810360008301526128f9816128bd565b9050919050565b60008190508160005260206000209050919050565b60006020601f8301049050919050565b600082821b905092915050565b6000600883026129627fffffffffffffffffffffffffffffffffffffffffffffffffffffffffffffffff82612925565b61296c8683612925565b95508019841693508086168417925050509392505050565b6000819050919050565b60006129a96129a461299f84611b35565b612984565b611b35565b9050919050565b6000819050919050565b6129c38361298e565b6129d76129cf826129b0565b848454612932565b825550505050565b600090565b6129ec6129df565b6129f78184846129ba565b505050565b5b81811015612a1b57612a106000826129e4565b6001810190506129fd565b5050565b601f821115612a6057612a3181612900565b612a3a84612915565b81016020851015612a49578190505b612a5d612a5585612915565b8301826129fc565b50505b505050565b600082821c905092915050565b6000612a8360001984600802612a65565b1980831691505092915050565b6000612a9c8383612a72565b9150826002028217905092915050565b612ab582611a83565b67ffffffffffffffff811115612ace57612acd611d80565b5b612ad8825461209a565b612ae3828285612a1f565b600060209050601f831160018114612b165760008415612b04578287015190505b612b0e8582612a90565b865550612b76565b601f198416612b2486612900565b60005b82811015612b4c57848901518255600182019150602085019450602081019050612b27565b86831015612b695784890151612b65601f891682612a72565b8355505b6001600288020188555050505b505050505050565b600081519050919050565b600082825260208201905092915050565b6000612ba582612b7e565b612baf8185612b89565b9350612bbf818560208601611a9f565b612bc881611ac9565b840191505092915050565b6000608082019050612be86000830187611bca565b612bf56020830186611bca565b612c026040830185611ce0565b8181036060830152612c148184612b9a565b905095945050505050565b600081519050612c2e816119f4565b92915050565b600060208284031215612c4a57612c496119be565b5b6000612c5884828501612c1f565b91505092915050565b6000612c6c82611b35565b91507fffffffffffffffffffffffffffffffffffffffffffffffffffffffffffffffff8203612c9e57612c9d612595565b5b600182019050919050565b7f4e487b7100000000000000000000000000000000000000000000000000000000600052601260045260246000fd5b6000612ce382611b35565b9150612cee83611b35565b925082612cfe57612cfd612ca9565b5b828204905092915050565b6000612d1482611b35565b9150612d1f83611b35565b925082612d2f57612d2e612ca9565b5b828206905092915050565b7f4e487b7100000000000000000000000000000000000000000000000000000000600052603260045260246000fdfea26469706673582212200f39579aef3139ff6e02f00f8f476c18f2cd6ab78ededc8e113003cc455468bf64736f6c63430008100033",
  "immutableReferences": {},
  "source": "// SPDX-License-Identifier: MIT\n\npragma solidity ^0.8.7;\n\nimport \"../node_modules/@openzeppelin/contracts/access/Ownable.sol\";\nimport \"../node_modules/@openzeppelin/contracts/token/ERC721/ERC721.sol\";\nimport \"../node_modules/@openzeppelin/contracts/token/ERC721/extensions/ERC721URIStorage.sol\";\nimport \"../node_modules/@openzeppelin/contracts/utils/Counters.sol\";\nimport \"../node_modules/@openzeppelin/contracts/token/ERC20/IERC20.sol\";\n\n// ERC721URIStorage : tokenURI  ,    JSON tokenURI .\n// Ownable :   , NFT       ,\n//     onlyOwner Modifier  \ncontract MintNFT is ERC721URIStorage, Ownable {\n    using Counters for Counters.Counter;\n    // Counters.Counter  _tokenIds . NFT  _tokenIds 1  NFT id .\n    // Counter uint256  , current(), increment(), decrement(), reset()    .\n    Counters.Counter private _tokenIds;\n\n    //  ERC721  ,   ,   \n    constructor() ERC721(\"ArtNFT\", \"ART\") {}\n\n    // NFT  , NFT json(, , URI,  )    tokenURI  .\n    function mintNFT(address to, string memory tokenURI)\n        public\n        returns (uint256)\n    {\n        // NFT      tokenIds 1 ,\n        _tokenIds.increment();\n        //    NFT  ID  ( 1   tokenI\n        uint256 newItemId = _tokenIds.current();\n        _mint(to, newItemId);\n        _setTokenURI(newItemId, tokenURI);\n\n        return newItemId;\n    }\n}\n",
  "sourcePath": "/Users/kunstar/nft_project/nft/server/contract/contracts/MintNFT.sol",
  "compiler": {
    "name": "solc",
    "version": "0.8.16+commit.07a7930e.Emscripten.clang"
  },
  "schemaVersion": "3.4.8",
  "updatedAt": "2022-08-30T15:37:17.430Z",
  "networkType": "ethereum",
  "devdoc": {
    "kind": "dev",
    "methods": {
      "approve(address,uint256)": {
        "details": "See {IERC721-approve}."
      },
      "balanceOf(address)": {
        "details": "See {IERC721-balanceOf}."
      },
      "getApproved(uint256)": {
        "details": "See {IERC721-getApproved}."
      },
      "isApprovedForAll(address,address)": {
        "details": "See {IERC721-isApprovedForAll}."
      },
      "name()": {
        "details": "See {IERC721Metadata-name}."
      },
      "owner()": {
        "details": "Returns the address of the current owner."
      },
      "ownerOf(uint256)": {
        "details": "See {IERC721-ownerOf}."
      },
      "renounceOwnership()": {
        "details": "Leaves the contract without owner. It will not be possible to call `onlyOwner` functions anymore. Can only be called by the current owner. NOTE: Renouncing ownership will leave the contract without an owner, thereby removing any functionality that is only available to the owner."
      },
      "safeTransferFrom(address,address,uint256)": {
        "details": "See {IERC721-safeTransferFrom}."
      },
      "safeTransferFrom(address,address,uint256,bytes)": {
        "details": "See {IERC721-safeTransferFrom}."
      },
      "setApprovalForAll(address,bool)": {
        "details": "See {IERC721-setApprovalForAll}."
      },
      "supportsInterface(bytes4)": {
        "details": "See {IERC165-supportsInterface}."
      },
      "symbol()": {
        "details": "See {IERC721Metadata-symbol}."
      },
      "tokenURI(uint256)": {
        "details": "See {IERC721Metadata-tokenURI}."
      },
      "transferFrom(address,address,uint256)": {
        "details": "See {IERC721-transferFrom}."
      },
      "transferOwnership(address)": {
        "details": "Transfers ownership of the contract to a new account (`newOwner`). Can only be called by the current owner."
      }
    },
    "version": 1
  },
  "userdoc": {
    "kind": "user",
    "methods": {},
    "version": 1
  }
}