{
  "contractName": "MintNFT",
  "abi": [
    {
      "inputs": [],
      "stateMutability": "nonpayable",
      "type": "constructor"
    },
    {
      "anonymous": false,
      "inputs": [
        {
          "indexed": true,
          "internalType": "address",
          "name": "owner",
          "type": "address"
        },
        {
          "indexed": true,
          "internalType": "address",
          "name": "approved",
          "type": "address"
        },
        {
          "indexed": true,
          "internalType": "uint256",
          "name": "tokenId",
          "type": "uint256"
        }
      ],
      "name": "Approval",
      "type": "event"
    },
    {
      "anonymous": false,
      "inputs": [
        {
          "indexed": true,
          "internalType": "address",
          "name": "owner",
          "type": "address"
        },
        {
          "indexed": true,
          "internalType": "address",
          "name": "operator",
          "type": "address"
        },
        {
          "indexed": false,
          "internalType": "bool",
          "name": "approved",
          "type": "bool"
        }
      ],
      "name": "ApprovalForAll",
      "type": "event"
    },
    {
      "anonymous": false,
      "inputs": [
        {
          "indexed": true,
          "internalType": "address",
          "name": "previousOwner",
          "type": "address"
        },
        {
          "indexed": true,
          "internalType": "address",
          "name": "newOwner",
          "type": "address"
        }
      ],
      "name": "OwnershipTransferred",
      "type": "event"
    },
    {
      "anonymous": false,
      "inputs": [
        {
          "indexed": true,
          "internalType": "address",
          "name": "from",
          "type": "address"
        },
        {
          "indexed": true,
          "internalType": "address",
          "name": "to",
          "type": "address"
        },
        {
          "indexed": true,
          "internalType": "uint256",
          "name": "tokenId",
          "type": "uint256"
        }
      ],
      "name": "Transfer",
      "type": "event"
    },
    {
      "inputs": [
        {
          "internalType": "address",
          "name": "to",
          "type": "address"
        },
        {
          "internalType": "uint256",
          "name": "tokenId",
          "type": "uint256"
        }
      ],
      "name": "approve",
      "outputs": [],
      "stateMutability": "nonpayable",
      "type": "function"
    },
    {
      "inputs": [
        {
          "internalType": "address",
          "name": "owner",
          "type": "address"
        }
      ],
      "name": "balanceOf",
      "outputs": [
        {
          "internalType": "uint256",
          "name": "",
          "type": "uint256"
        }
      ],
      "stateMutability": "view",
      "type": "function",
      "constant": true
    },
    {
      "inputs": [
        {
          "internalType": "uint256",
          "name": "tokenId",
          "type": "uint256"
        }
      ],
      "name": "getApproved",
      "outputs": [
        {
          "internalType": "address",
          "name": "",
          "type": "address"
        }
      ],
      "stateMutability": "view",
      "type": "function",
      "constant": true
    },
    {
      "inputs": [
        {
          "internalType": "address",
          "name": "owner",
          "type": "address"
        },
        {
          "internalType": "address",
          "name": "operator",
          "type": "address"
        }
      ],
      "name": "isApprovedForAll",
      "outputs": [
        {
          "internalType": "bool",
          "name": "",
          "type": "bool"
        }
      ],
      "stateMutability": "view",
      "type": "function",
      "constant": true
    },
    {
      "inputs": [],
      "name": "name",
      "outputs": [
        {
          "internalType": "string",
          "name": "",
          "type": "string"
        }
      ],
      "stateMutability": "view",
      "type": "function",
      "constant": true
    },
    {
      "inputs": [],
      "name": "nftPrice",
      "outputs": [
        {
          "internalType": "uint256",
          "name": "",
          "type": "uint256"
        }
      ],
      "stateMutability": "view",
      "type": "function",
      "constant": true
    },
    {
      "inputs": [],
      "name": "owner",
      "outputs": [
        {
          "internalType": "address",
          "name": "",
          "type": "address"
        }
      ],
      "stateMutability": "view",
      "type": "function",
      "constant": true
    },
    {
      "inputs": [
        {
          "internalType": "uint256",
          "name": "tokenId",
          "type": "uint256"
        }
      ],
      "name": "ownerOf",
      "outputs": [
        {
          "internalType": "address",
          "name": "",
          "type": "address"
        }
      ],
      "stateMutability": "view",
      "type": "function",
      "constant": true
    },
    {
      "inputs": [],
      "name": "renounceOwnership",
      "outputs": [],
      "stateMutability": "nonpayable",
      "type": "function"
    },
    {
      "inputs": [
        {
          "internalType": "address",
          "name": "from",
          "type": "address"
        },
        {
          "internalType": "address",
          "name": "to",
          "type": "address"
        },
        {
          "internalType": "uint256",
          "name": "tokenId",
          "type": "uint256"
        }
      ],
      "name": "safeTransferFrom",
      "outputs": [],
      "stateMutability": "nonpayable",
      "type": "function"
    },
    {
      "inputs": [
        {
          "internalType": "address",
          "name": "from",
          "type": "address"
        },
        {
          "internalType": "address",
          "name": "to",
          "type": "address"
        },
        {
          "internalType": "uint256",
          "name": "tokenId",
          "type": "uint256"
        },
        {
          "internalType": "bytes",
          "name": "data",
          "type": "bytes"
        }
      ],
      "name": "safeTransferFrom",
      "outputs": [],
      "stateMutability": "nonpayable",
      "type": "function"
    },
    {
      "inputs": [
        {
          "internalType": "address",
          "name": "operator",
          "type": "address"
        },
        {
          "internalType": "bool",
          "name": "approved",
          "type": "bool"
        }
      ],
      "name": "setApprovalForAll",
      "outputs": [],
      "stateMutability": "nonpayable",
      "type": "function"
    },
    {
      "inputs": [
        {
          "internalType": "bytes4",
          "name": "interfaceId",
          "type": "bytes4"
        }
      ],
      "name": "supportsInterface",
      "outputs": [
        {
          "internalType": "bool",
          "name": "",
          "type": "bool"
        }
      ],
      "stateMutability": "view",
      "type": "function",
      "constant": true
    },
    {
      "inputs": [],
      "name": "symbol",
      "outputs": [
        {
          "internalType": "string",
          "name": "",
          "type": "string"
        }
      ],
      "stateMutability": "view",
      "type": "function",
      "constant": true
    },
    {
      "inputs": [
        {
          "internalType": "uint256",
          "name": "tokenId",
          "type": "uint256"
        }
      ],
      "name": "tokenURI",
      "outputs": [
        {
          "internalType": "string",
          "name": "",
          "type": "string"
        }
      ],
      "stateMutability": "view",
      "type": "function",
      "constant": true
    },
    {
      "inputs": [
        {
          "internalType": "address",
          "name": "from",
          "type": "address"
        },
        {
          "internalType": "address",
          "name": "to",
          "type": "address"
        },
        {
          "internalType": "uint256",
          "name": "tokenId",
          "type": "uint256"
        }
      ],
      "name": "transferFrom",
      "outputs": [],
      "stateMutability": "nonpayable",
      "type": "function"
    },
    {
      "inputs": [
        {
          "internalType": "address",
          "name": "newOwner",
          "type": "address"
        }
      ],
      "name": "transferOwnership",
      "outputs": [],
      "stateMutability": "nonpayable",
      "type": "function"
    },
    {
      "inputs": [
        {
          "internalType": "address",
          "name": "to",
          "type": "address"
        },
        {
          "internalType": "string",
          "name": "tokenURI",
          "type": "string"
        }
      ],
      "name": "mintNFT",
      "outputs": [
        {
          "internalType": "uint256",
          "name": "",
          "type": "uint256"
        }
      ],
      "stateMutability": "nonpayable",
      "type": "function"
    }
  ],
  "bytecode": "0x60806040523480156200001157600080fd5b506040518060400160405280600681526020017f4172744e465400000000000000000000000000000000000000000000000000008152506040518060400160405280600381526020017f415254000000000000000000000000000000000000000000000000000000000081525081600090816200008f919062000421565b508060019081620000a1919062000421565b505050620000c4620000b8620000d960201b60201c565b620000e160201b60201c565b678ac7230489e8000060098190555062000508565b600033905090565b6000600760009054906101000a900473ffffffffffffffffffffffffffffffffffffffff16905081600760006101000a81548173ffffffffffffffffffffffffffffffffffffffff021916908373ffffffffffffffffffffffffffffffffffffffff1602179055508173ffffffffffffffffffffffffffffffffffffffff168173ffffffffffffffffffffffffffffffffffffffff167f8be0079c531659141344cd1fd0a4f28419497f9722a3daafe3b4186f6b6457e060405160405180910390a35050565b600081519050919050565b7f4e487b7100000000000000000000000000000000000000000000000000000000600052604160045260246000fd5b7f4e487b7100000000000000000000000000000000000000000000000000000000600052602260045260246000fd5b600060028204905060018216806200022957607f821691505b6020821081036200023f576200023e620001e1565b5b50919050565b60008190508160005260206000209050919050565b60006020601f8301049050919050565b600082821b905092915050565b600060088302620002a97fffffffffffffffffffffffffffffffffffffffffffffffffffffffffffffffff826200026a565b620002b586836200026a565b95508019841693508086168417925050509392505050565b6000819050919050565b6000819050919050565b600062000302620002fc620002f684620002cd565b620002d7565b620002cd565b9050919050565b6000819050919050565b6200031e83620002e1565b620003366200032d8262000309565b84845462000277565b825550505050565b600090565b6200034d6200033e565b6200035a81848462000313565b505050565b5b8181101562000382576200037660008262000343565b60018101905062000360565b5050565b601f821115620003d1576200039b8162000245565b620003a6846200025a565b81016020851015620003b6578190505b620003ce620003c5856200025a565b8301826200035f565b50505b505050565b600082821c905092915050565b6000620003f660001984600802620003d6565b1980831691505092915050565b6000620004118383620003e3565b9150826002028217905092915050565b6200042c82620001a7565b67ffffffffffffffff811115620004485762000447620001b2565b5b62000454825462000210565b6200046182828562000386565b600060209050601f83116001811462000499576000841562000484578287015190505b62000490858262000403565b86555062000500565b601f198416620004a98662000245565b60005b82811015620004d357848901518255600182019150602085019450602081019050620004ac565b86831015620004f35784890151620004ef601f891682620003e3565b8355505b6001600288020188555050505b505050505050565b612dce80620005186000396000f3fe608060405234801561001057600080fd5b50600436106101165760003560e01c8063715018a6116100a2578063b88d4fde11610071578063b88d4fde146102cd578063c87b56dd146102e9578063e985e9c514610319578063eacabe1414610349578063f2fde38b1461037957610116565b8063715018a61461026b5780638da5cb5b1461027557806395d89b4114610293578063a22cb465146102b157610116565b80630d39fc81116100e95780630d39fc81146101b557806323b872dd146101d357806342842e0e146101ef5780636352211e1461020b57806370a082311461023b57610116565b806301ffc9a71461011b57806306fdde031461014b578063081812fc14610169578063095ea7b314610199575b600080fd5b61013560048036038101906101309190611a4f565b610395565b6040516101429190611a97565b60405180910390f35b610153610477565b6040516101609190611b42565b60405180910390f35b610183600480360381019061017e9190611b9a565b610509565b6040516101909190611c08565b60405180910390f35b6101b360048036038101906101ae9190611c4f565b61054f565b005b6101bd610666565b6040516101ca9190611c9e565b60405180910390f35b6101ed60048036038101906101e89190611cb9565b61066c565b005b61020960048036038101906102049190611cb9565b6106cc565b005b61022560048036038101906102209190611b9a565b6106ec565b6040516102329190611c08565b60405180910390f35b61025560048036038101906102509190611d0c565b61079d565b6040516102629190611c9e565b60405180910390f35b610273610854565b005b61027d610868565b60405161028a9190611c08565b60405180910390f35b61029b610892565b6040516102a89190611b42565b60405180910390f35b6102cb60048036038101906102c69190611d65565b610924565b005b6102e760048036038101906102e29190611eda565b61093a565b005b61030360048036038101906102fe9190611b9a565b61099c565b6040516103109190611b42565b60405180910390f35b610333600480360381019061032e9190611f5d565b610aae565b6040516103409190611a97565b60405180910390f35b610363600480360381019061035e919061203e565b610b42565b6040516103709190611c9e565b60405180910390f35b610393600480360381019061038e9190611d0c565b610b7a565b005b60007f80ac58cd000000000000000000000000000000000000000000000000000000007bffffffffffffffffffffffffffffffffffffffffffffffffffffffff1916827bffffffffffffffffffffffffffffffffffffffffffffffffffffffff1916148061046057507f5b5e139f000000000000000000000000000000000000000000000000000000007bffffffffffffffffffffffffffffffffffffffffffffffffffffffff1916827bffffffffffffffffffffffffffffffffffffffffffffffffffffffff1916145b80610470575061046f82610bfd565b5b9050919050565b606060008054610486906120c9565b80601f01602080910402602001604051908101604052809291908181526020018280546104b2906120c9565b80156104ff5780601f106104d4576101008083540402835291602001916104ff565b820191906000526020600020905b8154815290600101906020018083116104e257829003601f168201915b5050505050905090565b600061051482610c67565b6004600083815260200190815260200160002060009054906101000a900473ffffffffffffffffffffffffffffffffffffffff169050919050565b600061055a826106ec565b90508073ffffffffffffffffffffffffffffffffffffffff168373ffffffffffffffffffffffffffffffffffffffff16036105ca576040517f08c379a00000000000000000000000000000000000000000000000000000000081526004016105c19061216c565b60405180910390fd5b8073ffffffffffffffffffffffffffffffffffffffff166105e9610cb2565b73ffffffffffffffffffffffffffffffffffffffff161480610618575061061781610612610cb2565b610aae565b5b610657576040517f08c379a000000000000000000000000000000000000000000000000000000000815260040161064e906121fe565b60405180910390fd5b6106618383610cba565b505050565b60095481565b61067d610677610cb2565b82610d73565b6106bc576040517f08c379a00000000000000000000000000000000000000000000000000000000081526004016106b390612290565b60405180910390fd5b6106c7838383610e08565b505050565b6106e78383836040518060200160405280600081525061093a565b505050565b6000806002600084815260200190815260200160002060009054906101000a900473ffffffffffffffffffffffffffffffffffffffff169050600073ffffffffffffffffffffffffffffffffffffffff168173ffffffffffffffffffffffffffffffffffffffff1603610794576040517f08c379a000000000000000000000000000000000000000000000000000000000815260040161078b906122fc565b60405180910390fd5b80915050919050565b60008073ffffffffffffffffffffffffffffffffffffffff168273ffffffffffffffffffffffffffffffffffffffff160361080d576040517f08c379a00000000000000000000000000000000000000000000000000000000081526004016108049061238e565b60405180910390fd5b600360008373ffffffffffffffffffffffffffffffffffffffff1673ffffffffffffffffffffffffffffffffffffffff168152602001908152602001600020549050919050565b61085c61106e565b61086660006110ec565b565b6000600760009054906101000a900473ffffffffffffffffffffffffffffffffffffffff16905090565b6060600180546108a1906120c9565b80601f01602080910402602001604051908101604052809291908181526020018280546108cd906120c9565b801561091a5780601f106108ef5761010080835404028352916020019161091a565b820191906000526020600020905b8154815290600101906020018083116108fd57829003601f168201915b5050505050905090565b61093661092f610cb2565b83836111b2565b5050565b61094b610945610cb2565b83610d73565b61098a576040517f08c379a000000000000000000000000000000000000000000000000000000000815260040161098190612290565b60405180910390fd5b6109968484848461131e565b50505050565b60606109a782610c67565b60006006600084815260200190815260200160002080546109c7906120c9565b80601f01602080910402602001604051908101604052809291908181526020018280546109f3906120c9565b8015610a405780601f10610a1557610100808354040283529160200191610a40565b820191906000526020600020905b815481529060010190602001808311610a2357829003601f168201915b505050505090506000610a5161137a565b90506000815103610a66578192505050610aa9565b600082511115610a9b578082604051602001610a839291906123ea565b60405160208183030381529060405292505050610aa9565b610aa484611391565b925050505b919050565b6000600560008473ffffffffffffffffffffffffffffffffffffffff1673ffffffffffffffffffffffffffffffffffffffff16815260200190815260200160002060008373ffffffffffffffffffffffffffffffffffffffff1673ffffffffffffffffffffffffffffffffffffffff16815260200190815260200160002060009054906101000a900460ff16905092915050565b6000610b4e60086113f9565b6000610b5a600861140f565b9050610b66848261141d565b610b7081846115f6565b8091505092915050565b610b8261106e565b600073ffffffffffffffffffffffffffffffffffffffff168173ffffffffffffffffffffffffffffffffffffffff1603610bf1576040517f08c379a0000000000000000000000000000000000000000000000000000000008152600401610be890612480565b60405180910390fd5b610bfa816110ec565b50565b60007f01ffc9a7000000000000000000000000000000000000000000000000000000007bffffffffffffffffffffffffffffffffffffffffffffffffffffffff1916827bffffffffffffffffffffffffffffffffffffffffffffffffffffffff1916149050919050565b610c7081611663565b610caf576040517f08c379a0000000000000000000000000000000000000000000000000000000008152600401610ca6906122fc565b60405180910390fd5b50565b600033905090565b816004600083815260200190815260200160002060006101000a81548173ffffffffffffffffffffffffffffffffffffffff021916908373ffffffffffffffffffffffffffffffffffffffff160217905550808273ffffffffffffffffffffffffffffffffffffffff16610d2d836106ec565b73ffffffffffffffffffffffffffffffffffffffff167f8c5be1e5ebec7d5bd14f71427d1e84f3dd0314c0f7b2291e5b200ac8c7c3b92560405160405180910390a45050565b600080610d7f836106ec565b90508073ffffffffffffffffffffffffffffffffffffffff168473ffffffffffffffffffffffffffffffffffffffff161480610dc15750610dc08185610aae565b5b80610dff57508373ffffffffffffffffffffffffffffffffffffffff16610de784610509565b73ffffffffffffffffffffffffffffffffffffffff16145b91505092915050565b8273ffffffffffffffffffffffffffffffffffffffff16610e28826106ec565b73ffffffffffffffffffffffffffffffffffffffff1614610e7e576040517f08c379a0000000000000000000000000000000000000000000000000000000008152600401610e7590612512565b60405180910390fd5b600073ffffffffffffffffffffffffffffffffffffffff168273ffffffffffffffffffffffffffffffffffffffff1603610eed576040517f08c379a0000000000000000000000000000000000000000000000000000000008152600401610ee4906125a4565b60405180910390fd5b610ef88383836116cf565b610f03600082610cba565b6001600360008573ffffffffffffffffffffffffffffffffffffffff1673ffffffffffffffffffffffffffffffffffffffff1681526020019081526020016000206000828254610f5391906125f3565b925050819055506001600360008473ffffffffffffffffffffffffffffffffffffffff1673ffffffffffffffffffffffffffffffffffffffff1681526020019081526020016000206000828254610faa9190612627565b92505081905550816002600083815260200190815260200160002060006101000a81548173ffffffffffffffffffffffffffffffffffffffff021916908373ffffffffffffffffffffffffffffffffffffffff160217905550808273ffffffffffffffffffffffffffffffffffffffff168473ffffffffffffffffffffffffffffffffffffffff167fddf252ad1be2c89b69c2b068fc378daa952ba7f163c4a11628f55a4df523b3ef60405160405180910390a46110698383836116d4565b505050565b611076610cb2565b73ffffffffffffffffffffffffffffffffffffffff16611094610868565b73ffffffffffffffffffffffffffffffffffffffff16146110ea576040517f08c379a00000000000000000000000000000000000000000000000000000000081526004016110e1906126a7565b60405180910390fd5b565b6000600760009054906101000a900473ffffffffffffffffffffffffffffffffffffffff16905081600760006101000a81548173ffffffffffffffffffffffffffffffffffffffff021916908373ffffffffffffffffffffffffffffffffffffffff1602179055508173ffffffffffffffffffffffffffffffffffffffff168173ffffffffffffffffffffffffffffffffffffffff167f8be0079c531659141344cd1fd0a4f28419497f9722a3daafe3b4186f6b6457e060405160405180910390a35050565b8173ffffffffffffffffffffffffffffffffffffffff168373ffffffffffffffffffffffffffffffffffffffff1603611220576040517f08c379a000000000000000000000000000000000000000000000000000000000815260040161121790612713565b60405180910390fd5b80600560008573ffffffffffffffffffffffffffffffffffffffff1673ffffffffffffffffffffffffffffffffffffffff16815260200190815260200160002060008473ffffffffffffffffffffffffffffffffffffffff1673ffffffffffffffffffffffffffffffffffffffff16815260200190815260200160002060006101000a81548160ff0219169083151502179055508173ffffffffffffffffffffffffffffffffffffffff168373ffffffffffffffffffffffffffffffffffffffff167f17307eab39ab6107e8899845ad3d59bd9653f200f220920489ca2b5937696c31836040516113119190611a97565b60405180910390a3505050565b611329848484610e08565b611335848484846116d9565b611374576040517f08c379a000000000000000000000000000000000000000000000000000000000815260040161136b906127a5565b60405180910390fd5b50505050565b606060405180602001604052806000815250905090565b606061139c82610c67565b60006113a661137a565b905060008151116113c657604051806020016040528060008152506113f1565b806113d084611860565b6040516020016113e19291906123ea565b6040516020818303038152906040525b915050919050565b6001816000016000828254019250508190555050565b600081600001549050919050565b600073ffffffffffffffffffffffffffffffffffffffff168273ffffffffffffffffffffffffffffffffffffffff160361148c576040517f08c379a000000000000000000000000000000000000000000000000000000000815260040161148390612811565b60405180910390fd5b61149581611663565b156114d5576040517f08c379a00000000000000000000000000000000000000000000000000000000081526004016114cc9061287d565b60405180910390fd5b6114e1600083836116cf565b6001600360008473ffffffffffffffffffffffffffffffffffffffff1673ffffffffffffffffffffffffffffffffffffffff16815260200190815260200160002060008282546115319190612627565b92505081905550816002600083815260200190815260200160002060006101000a81548173ffffffffffffffffffffffffffffffffffffffff021916908373ffffffffffffffffffffffffffffffffffffffff160217905550808273ffffffffffffffffffffffffffffffffffffffff16600073ffffffffffffffffffffffffffffffffffffffff167fddf252ad1be2c89b69c2b068fc378daa952ba7f163c4a11628f55a4df523b3ef60405160405180910390a46115f2600083836116d4565b5050565b6115ff82611663565b61163e576040517f08c379a00000000000000000000000000000000000000000000000000000000081526004016116359061290f565b60405180910390fd5b8060066000848152602001908152602001600020908161165e9190612adb565b505050565b60008073ffffffffffffffffffffffffffffffffffffffff166002600084815260200190815260200160002060009054906101000a900473ffffffffffffffffffffffffffffffffffffffff1673ffffffffffffffffffffffffffffffffffffffff1614159050919050565b505050565b505050565b60006116fa8473ffffffffffffffffffffffffffffffffffffffff166119c0565b15611853578373ffffffffffffffffffffffffffffffffffffffff1663150b7a02611723610cb2565b8786866040518563ffffffff1660e01b81526004016117459493929190612c02565b6020604051808303816000875af192505050801561178157506040513d601f19601f8201168201806040525081019061177e9190612c63565b60015b611803573d80600081146117b1576040519150601f19603f3d011682016040523d82523d6000602084013e6117b6565b606091505b5060008151036117fb576040517f08c379a00000000000000000000000000000000000000000000000000000000081526004016117f2906127a5565b60405180910390fd5b805181602001fd5b63150b7a0260e01b7bffffffffffffffffffffffffffffffffffffffffffffffffffffffff1916817bffffffffffffffffffffffffffffffffffffffffffffffffffffffff191614915050611858565b600190505b949350505050565b6060600082036118a7576040518060400160405280600181526020017f300000000000000000000000000000000000000000000000000000000000000081525090506119bb565b600082905060005b600082146118d95780806118c290612c90565b915050600a826118d29190612d07565b91506118af565b60008167ffffffffffffffff8111156118f5576118f4611daf565b5b6040519080825280601f01601f1916602001820160405280156119275781602001600182028036833780820191505090505b5090505b600085146119b45760018261194091906125f3565b9150600a8561194f9190612d38565b603061195b9190612627565b60f81b81838151811061197157611970612d69565b5b60200101907effffffffffffffffffffffffffffffffffffffffffffffffffffffffffffff1916908160001a905350600a856119ad9190612d07565b945061192b565b8093505050505b919050565b6000808273ffffffffffffffffffffffffffffffffffffffff163b119050919050565b6000604051905090565b600080fd5b600080fd5b60007fffffffff0000000000000000000000000000000000000000000000000000000082169050919050565b611a2c816119f7565b8114611a3757600080fd5b50565b600081359050611a4981611a23565b92915050565b600060208284031215611a6557611a646119ed565b5b6000611a7384828501611a3a565b91505092915050565b60008115159050919050565b611a9181611a7c565b82525050565b6000602082019050611aac6000830184611a88565b92915050565b600081519050919050565b600082825260208201905092915050565b60005b83811015611aec578082015181840152602081019050611ad1565b60008484015250505050565b6000601f19601f8301169050919050565b6000611b1482611ab2565b611b1e8185611abd565b9350611b2e818560208601611ace565b611b3781611af8565b840191505092915050565b60006020820190508181036000830152611b5c8184611b09565b905092915050565b6000819050919050565b611b7781611b64565b8114611b8257600080fd5b50565b600081359050611b9481611b6e565b92915050565b600060208284031215611bb057611baf6119ed565b5b6000611bbe84828501611b85565b91505092915050565b600073ffffffffffffffffffffffffffffffffffffffff82169050919050565b6000611bf282611bc7565b9050919050565b611c0281611be7565b82525050565b6000602082019050611c1d6000830184611bf9565b92915050565b611c2c81611be7565b8114611c3757600080fd5b50565b600081359050611c4981611c23565b92915050565b60008060408385031215611c6657611c656119ed565b5b6000611c7485828601611c3a565b9250506020611c8585828601611b85565b9150509250929050565b611c9881611b64565b82525050565b6000602082019050611cb36000830184611c8f565b92915050565b600080600060608486031215611cd257611cd16119ed565b5b6000611ce086828701611c3a565b9350506020611cf186828701611c3a565b9250506040611d0286828701611b85565b9150509250925092565b600060208284031215611d2257611d216119ed565b5b6000611d3084828501611c3a565b91505092915050565b611d4281611a7c565b8114611d4d57600080fd5b50565b600081359050611d5f81611d39565b92915050565b60008060408385031215611d7c57611d7b6119ed565b5b6000611d8a85828601611c3a565b9250506020611d9b85828601611d50565b9150509250929050565b600080fd5b600080fd5b7f4e487b7100000000000000000000000000000000000000000000000000000000600052604160045260246000fd5b611de782611af8565b810181811067ffffffffffffffff82111715611e0657611e05611daf565b5b80604052505050565b6000611e196119e3565b9050611e258282611dde565b919050565b600067ffffffffffffffff821115611e4557611e44611daf565b5b611e4e82611af8565b9050602081019050919050565b82818337600083830152505050565b6000611e7d611e7884611e2a565b611e0f565b905082815260208101848484011115611e9957611e98611daa565b5b611ea4848285611e5b565b509392505050565b600082601f830112611ec157611ec0611da5565b5b8135611ed1848260208601611e6a565b91505092915050565b60008060008060808587031215611ef457611ef36119ed565b5b6000611f0287828801611c3a565b9450506020611f1387828801611c3a565b9350506040611f2487828801611b85565b925050606085013567ffffffffffffffff811115611f4557611f446119f2565b5b611f5187828801611eac565b91505092959194509250565b60008060408385031215611f7457611f736119ed565b5b6000611f8285828601611c3a565b9250506020611f9385828601611c3a565b9150509250929050565b600067ffffffffffffffff821115611fb857611fb7611daf565b5b611fc182611af8565b9050602081019050919050565b6000611fe1611fdc84611f9d565b611e0f565b905082815260208101848484011115611ffd57611ffc611daa565b5b612008848285611e5b565b509392505050565b600082601f83011261202557612024611da5565b5b8135612035848260208601611fce565b91505092915050565b60008060408385031215612055576120546119ed565b5b600061206385828601611c3a565b925050602083013567ffffffffffffffff811115612084576120836119f2565b5b61209085828601612010565b9150509250929050565b7f4e487b7100000000000000000000000000000000000000000000000000000000600052602260045260246000fd5b600060028204905060018216806120e157607f821691505b6020821081036120f4576120f361209a565b5b50919050565b7f4552433732313a20617070726f76616c20746f2063757272656e74206f776e6560008201527f7200000000000000000000000000000000000000000000000000000000000000602082015250565b6000612156602183611abd565b9150612161826120fa565b604082019050919050565b6000602082019050818103600083015261218581612149565b9050919050565b7f4552433732313a20617070726f76652063616c6c6572206973206e6f7420746f60008201527f6b656e206f776e6572206e6f7220617070726f76656420666f7220616c6c0000602082015250565b60006121e8603e83611abd565b91506121f38261218c565b604082019050919050565b60006020820190508181036000830152612217816121db565b9050919050565b7f4552433732313a2063616c6c6572206973206e6f7420746f6b656e206f776e6560008201527f72206e6f7220617070726f766564000000000000000000000000000000000000602082015250565b600061227a602e83611abd565b91506122858261221e565b604082019050919050565b600060208201905081810360008301526122a98161226d565b9050919050565b7f4552433732313a20696e76616c696420746f6b656e2049440000000000000000600082015250565b60006122e6601883611abd565b91506122f1826122b0565b602082019050919050565b60006020820190508181036000830152612315816122d9565b9050919050565b7f4552433732313a2061646472657373207a65726f206973206e6f74206120766160008201527f6c6964206f776e65720000000000000000000000000000000000000000000000602082015250565b6000612378602983611abd565b91506123838261231c565b604082019050919050565b600060208201905081810360008301526123a78161236b565b9050919050565b600081905092915050565b60006123c482611ab2565b6123ce81856123ae565b93506123de818560208601611ace565b80840191505092915050565b60006123f682856123b9565b915061240282846123b9565b91508190509392505050565b7f4f776e61626c653a206e6577206f776e657220697320746865207a65726f206160008201527f6464726573730000000000000000000000000000000000000000000000000000602082015250565b600061246a602683611abd565b91506124758261240e565b604082019050919050565b600060208201905081810360008301526124998161245d565b9050919050565b7f4552433732313a207472616e736665722066726f6d20696e636f72726563742060008201527f6f776e6572000000000000000000000000000000000000000000000000000000602082015250565b60006124fc602583611abd565b9150612507826124a0565b604082019050919050565b6000602082019050818103600083015261252b816124ef565b9050919050565b7f4552433732313a207472616e7366657220746f20746865207a65726f2061646460008201527f7265737300000000000000000000000000000000000000000000000000000000602082015250565b600061258e602483611abd565b915061259982612532565b604082019050919050565b600060208201905081810360008301526125bd81612581565b9050919050565b7f4e487b7100000000000000000000000000000000000000000000000000000000600052601160045260246000fd5b60006125fe82611b64565b915061260983611b64565b9250828203905081811115612621576126206125c4565b5b92915050565b600061263282611b64565b915061263d83611b64565b9250828201905080821115612655576126546125c4565b5b92915050565b7f4f776e61626c653a2063616c6c6572206973206e6f7420746865206f776e6572600082015250565b6000612691602083611abd565b915061269c8261265b565b602082019050919050565b600060208201905081810360008301526126c081612684565b9050919050565b7f4552433732313a20617070726f766520746f2063616c6c657200000000000000600082015250565b60006126fd601983611abd565b9150612708826126c7565b602082019050919050565b6000602082019050818103600083015261272c816126f0565b9050919050565b7f4552433732313a207472616e7366657220746f206e6f6e20455243373231526560008201527f63656976657220696d706c656d656e7465720000000000000000000000000000602082015250565b600061278f603283611abd565b915061279a82612733565b604082019050919050565b600060208201905081810360008301526127be81612782565b9050919050565b7f4552433732313a206d696e7420746f20746865207a65726f2061646472657373600082015250565b60006127fb602083611abd565b9150612806826127c5565b602082019050919050565b6000602082019050818103600083015261282a816127ee565b9050919050565b7f4552433732313a20746f6b656e20616c7265616479206d696e74656400000000600082015250565b6000612867601c83611abd565b915061287282612831565b602082019050919050565b600060208201905081810360008301526128968161285a565b9050919050565b7f45524337323155524953746f726167653a2055524920736574206f66206e6f6e60008201527f6578697374656e7420746f6b656e000000000000000000000000000000000000602082015250565b60006128f9602e83611abd565b91506129048261289d565b604082019050919050565b60006020820190508181036000830152612928816128ec565b9050919050565b60008190508160005260206000209050919050565b60006020601f8301049050919050565b600082821b905092915050565b6000600883026129917fffffffffffffffffffffffffffffffffffffffffffffffffffffffffffffffff82612954565b61299b8683612954565b95508019841693508086168417925050509392505050565b6000819050919050565b60006129d86129d36129ce84611b64565b6129b3565b611b64565b9050919050565b6000819050919050565b6129f2836129bd565b612a066129fe826129df565b848454612961565b825550505050565b600090565b612a1b612a0e565b612a268184846129e9565b505050565b5b81811015612a4a57612a3f600082612a13565b600181019050612a2c565b5050565b601f821115612a8f57612a608161292f565b612a6984612944565b81016020851015612a78578190505b612a8c612a8485612944565b830182612a2b565b50505b505050565b600082821c905092915050565b6000612ab260001984600802612a94565b1980831691505092915050565b6000612acb8383612aa1565b9150826002028217905092915050565b612ae482611ab2565b67ffffffffffffffff811115612afd57612afc611daf565b5b612b0782546120c9565b612b12828285612a4e565b600060209050601f831160018114612b455760008415612b33578287015190505b612b3d8582612abf565b865550612ba5565b601f198416612b538661292f565b60005b82811015612b7b57848901518255600182019150602085019450602081019050612b56565b86831015612b985784890151612b94601f891682612aa1565b8355505b6001600288020188555050505b505050505050565b600081519050919050565b600082825260208201905092915050565b6000612bd482612bad565b612bde8185612bb8565b9350612bee818560208601611ace565b612bf781611af8565b840191505092915050565b6000608082019050612c176000830187611bf9565b612c246020830186611bf9565b612c316040830185611c8f565b8181036060830152612c438184612bc9565b905095945050505050565b600081519050612c5d81611a23565b92915050565b600060208284031215612c7957612c786119ed565b5b6000612c8784828501612c4e565b91505092915050565b6000612c9b82611b64565b91507fffffffffffffffffffffffffffffffffffffffffffffffffffffffffffffffff8203612ccd57612ccc6125c4565b5b600182019050919050565b7f4e487b7100000000000000000000000000000000000000000000000000000000600052601260045260246000fd5b6000612d1282611b64565b9150612d1d83611b64565b925082612d2d57612d2c612cd8565b5b828204905092915050565b6000612d4382611b64565b9150612d4e83611b64565b925082612d5e57612d5d612cd8565b5b828206905092915050565b7f4e487b7100000000000000000000000000000000000000000000000000000000600052603260045260246000fdfea2646970667358221220518bba5684ccc6d5e4f7210fc9ef3249121ec0cd0e9c3f14fe20adbee7132db464736f6c63430008100033",
  "immutableReferences": {},
  "source": "// SPDX-License-Identifier: MIT\n\npragma solidity ^0.8.7;\n\nimport \"../node_modules/@openzeppelin/contracts/access/Ownable.sol\";\nimport \"../node_modules/@openzeppelin/contracts/token/ERC721/ERC721.sol\";\nimport \"../node_modules/@openzeppelin/contracts/token/ERC721/extensions/ERC721URIStorage.sol\";\nimport \"../node_modules/@openzeppelin/contracts/utils/Counters.sol\";\nimport \"../node_modules/@openzeppelin/contracts/token/ERC20/IERC20.sol\";\n\n// ERC721URIStorage : tokenURI  ,    JSON tokenURI .\n// Ownable :   , NFT       ,\n//     onlyOwner Modifier  \ncontract MintNFT is ERC721URIStorage, Ownable {\n    using Counters for Counters.Counter;\n    // Counters.Counter  _tokenIds . NFT  _tokenIds 1  NFT id .\n    // Counter uint256  , current(), increment(), decrement(), reset()    .\n    Counters.Counter private _tokenIds;\n    // mapping(string => uint256) public getToken;\n    // IERC20 public token;\n    uint256 public nftPrice;\n\n    //  ERC721  ,   ,   \n    constructor() ERC721(\"ArtNFT\", \"ART\") {\n        nftPrice = 10e18;\n    }\n\n    // NFT  , NFT json(, , URI,  )    tokenURI  .\n    function mintNFT(address to, string memory tokenURI)\n        public\n        returns (uint256)\n    {\n        // require(token.balanceOf(to) > nftPrice);\n\n        // NFT      tokenIds 1 ,\n        _tokenIds.increment();\n        //    NFT  ID  ( 1   tokenI\n        uint256 newItemId = _tokenIds.current();\n        _mint(to, newItemId);\n        _setTokenURI(newItemId, tokenURI);\n        // getToken[tokenURI] = newItemId;\n\n        return newItemId;\n    }\n}\n",
  "sourcePath": "/Users/kunstar/nft_project/nft/server/contract/contracts/MintNFT.sol",
  "compiler": {
    "name": "solc",
    "version": "0.8.16+commit.07a7930e.Emscripten.clang"
  },
  "schemaVersion": "3.4.8",
  "updatedAt": "2022-08-29T03:56:00.314Z",
  "networkType": "ethereum",
  "devdoc": {
    "kind": "dev",
    "methods": {
      "approve(address,uint256)": {
        "details": "See {IERC721-approve}."
      },
      "balanceOf(address)": {
        "details": "See {IERC721-balanceOf}."
      },
      "getApproved(uint256)": {
        "details": "See {IERC721-getApproved}."
      },
      "isApprovedForAll(address,address)": {
        "details": "See {IERC721-isApprovedForAll}."
      },
      "name()": {
        "details": "See {IERC721Metadata-name}."
      },
      "owner()": {
        "details": "Returns the address of the current owner."
      },
      "ownerOf(uint256)": {
        "details": "See {IERC721-ownerOf}."
      },
      "renounceOwnership()": {
        "details": "Leaves the contract without owner. It will not be possible to call `onlyOwner` functions anymore. Can only be called by the current owner. NOTE: Renouncing ownership will leave the contract without an owner, thereby removing any functionality that is only available to the owner."
      },
      "safeTransferFrom(address,address,uint256)": {
        "details": "See {IERC721-safeTransferFrom}."
      },
      "safeTransferFrom(address,address,uint256,bytes)": {
        "details": "See {IERC721-safeTransferFrom}."
      },
      "setApprovalForAll(address,bool)": {
        "details": "See {IERC721-setApprovalForAll}."
      },
      "supportsInterface(bytes4)": {
        "details": "See {IERC165-supportsInterface}."
      },
      "symbol()": {
        "details": "See {IERC721Metadata-symbol}."
      },
      "tokenURI(uint256)": {
        "details": "See {IERC721Metadata-tokenURI}."
      },
      "transferFrom(address,address,uint256)": {
        "details": "See {IERC721-transferFrom}."
      },
      "transferOwnership(address)": {
        "details": "Transfers ownership of the contract to a new account (`newOwner`). Can only be called by the current owner."
      }
    },
    "version": 1
  },
  "userdoc": {
    "kind": "user",
    "methods": {},
    "version": 1
  }
}