{
  "contractName": "SaleArtToken",
  "abi": [
    {
      "inputs": [],
      "stateMutability": "nonpayable",
      "type": "constructor"
    },
    {
      "inputs": [
        {
          "internalType": "uint256",
          "name": "",
          "type": "uint256"
        }
      ],
      "name": "artTokenPrices",
      "outputs": [
        {
          "internalType": "uint256",
          "name": "",
          "type": "uint256"
        }
      ],
      "stateMutability": "view",
      "type": "function",
      "constant": true
    },
    {
      "inputs": [],
      "name": "mintArtTokenAddress",
      "outputs": [
        {
          "internalType": "contract MintNFT",
          "name": "",
          "type": "address"
        }
      ],
      "stateMutability": "view",
      "type": "function",
      "constant": true
    },
    {
      "inputs": [
        {
          "internalType": "uint256",
          "name": "",
          "type": "uint256"
        }
      ],
      "name": "onSaleArtTokenArray",
      "outputs": [
        {
          "internalType": "uint256",
          "name": "",
          "type": "uint256"
        }
      ],
      "stateMutability": "view",
      "type": "function",
      "constant": true
    },
    {
      "inputs": [
        {
          "internalType": "uint256",
          "name": "_artTokenId",
          "type": "uint256"
        }
      ],
      "name": "purchaseArtToken",
      "outputs": [
        {
          "internalType": "uint256",
          "name": "",
          "type": "uint256"
        }
      ],
      "stateMutability": "payable",
      "type": "function",
      "payable": true
    }
  ],
  "bytecode": "0x608060405234801561001057600080fd5b50610968806100206000396000f3fe60806040526004361061003f5760003560e01c8063367f3c0c14610044578063729c2e8414610081578063c21b1bf3146100ac578063c866b67b146100dc575b600080fd5b34801561005057600080fd5b5061006b60048036038101906100669190610532565b610119565b604051610078919061056e565b60405180910390f35b34801561008d57600080fd5b5061009661013d565b6040516100a39190610608565b60405180910390f35b6100c660048036038101906100c19190610532565b610161565b6040516100d3919061056e565b60405180910390f35b3480156100e857600080fd5b5061010360048036038101906100fe9190610532565b6104df565b604051610110919061056e565b60405180910390f35b6002818154811061012957600080fd5b906000526020600020016000915090505481565b60008054906101000a900473ffffffffffffffffffffffffffffffffffffffff1681565b6000806001600084815260200190815260200160002054905060008060009054906101000a900473ffffffffffffffffffffffffffffffffffffffff1673ffffffffffffffffffffffffffffffffffffffff16636352211e856040518263ffffffff1660e01b81526004016101d6919061056e565b602060405180830381865afa1580156101f3573d6000803e3d6000fd5b505050506040513d601f19601f820116820180604052508101906102179190610661565b90506000821161025c576040517f08c379a0000000000000000000000000000000000000000000000000000000008152600401610253906106eb565b60405180910390fd5b3482111561029f576040517f08c379a000000000000000000000000000000000000000000000000000000000815260040161029690610757565b60405180910390fd5b3373ffffffffffffffffffffffffffffffffffffffff168173ffffffffffffffffffffffffffffffffffffffff160361030d576040517f08c379a0000000000000000000000000000000000000000000000000000000008152600401610304906107c3565b60405180910390fd5b8073ffffffffffffffffffffffffffffffffffffffff166108fc349081150290604051600060405180830381858888f19350505050158015610353573d6000803e3d6000fd5b5060008054906101000a900473ffffffffffffffffffffffffffffffffffffffff1673ffffffffffffffffffffffffffffffffffffffff166342842e0e8233876040518463ffffffff1660e01b81526004016103b1939291906107f2565b600060405180830381600087803b1580156103cb57600080fd5b505af11580156103df573d6000803e3d6000fd5b505050506000600160008681526020019081526020016000208190555060005b6002805490508110156104d3576000600160006002848154811061042657610425610829565b5b9060005260206000200154815260200190815260200160002054036104c057600260016002805490506104599190610887565b8154811061046a57610469610829565b5b90600052602060002001546002828154811061048957610488610829565b5b906000526020600020018190555060028054806104a9576104a86108bb565b5b600190038181906000526020600020016000905590555b80806104cb906108ea565b9150506103ff565b5060c892505050919050565b60016020528060005260406000206000915090505481565b600080fd5b6000819050919050565b61050f816104fc565b811461051a57600080fd5b50565b60008135905061052c81610506565b92915050565b600060208284031215610548576105476104f7565b5b60006105568482850161051d565b91505092915050565b610568816104fc565b82525050565b6000602082019050610583600083018461055f565b92915050565b600073ffffffffffffffffffffffffffffffffffffffff82169050919050565b6000819050919050565b60006105ce6105c96105c484610589565b6105a9565b610589565b9050919050565b60006105e0826105b3565b9050919050565b60006105f2826105d5565b9050919050565b610602816105e7565b82525050565b600060208201905061061d60008301846105f9565b92915050565b600061062e82610589565b9050919050565b61063e81610623565b811461064957600080fd5b50565b60008151905061065b81610635565b92915050565b600060208284031215610677576106766104f7565b5b60006106858482850161064c565b91505092915050565b600082825260208201905092915050565b7f417274546f6b656e206e6f742073616c65000000000000000000000000000000600082015250565b60006106d560118361068e565b91506106e08261069f565b602082019050919050565b60006020820190508181036000830152610704816106c8565b9050919050565b7f6e6f74206d6f6e65790000000000000000000000000000000000000000000000600082015250565b600061074160098361068e565b915061074c8261070b565b602082019050919050565b6000602082019050818103600083015261077081610734565b9050919050565b7f6e6f74206f776e65720000000000000000000000000000000000000000000000600082015250565b60006107ad60098361068e565b91506107b882610777565b602082019050919050565b600060208201905081810360008301526107dc816107a0565b9050919050565b6107ec81610623565b82525050565b600060608201905061080760008301866107e3565b61081460208301856107e3565b610821604083018461055f565b949350505050565b7f4e487b7100000000000000000000000000000000000000000000000000000000600052603260045260246000fd5b7f4e487b7100000000000000000000000000000000000000000000000000000000600052601160045260246000fd5b6000610892826104fc565b915061089d836104fc565b92508282039050818111156108b5576108b4610858565b5b92915050565b7f4e487b7100000000000000000000000000000000000000000000000000000000600052603160045260246000fd5b60006108f5826104fc565b91507fffffffffffffffffffffffffffffffffffffffffffffffffffffffffffffffff820361092757610926610858565b5b60018201905091905056fea26469706673582212205d9ebdcd3c293d66e6552e4f4ffd7dedc735bf2a97acaac1d1a98887800072a564736f6c63430008100033",
  "immutableReferences": {},
  "source": "// SPDX-License-Identifier: MIT\n\npragma solidity ^0.8.7;\n\nimport \"./MintNFT.sol\";\n\ncontract SaleArtToken {\n    MintNFT public mintArtTokenAddress;\n\n    constructor() {}\n\n    mapping(uint256 => uint256) public artTokenPrices;\n    uint256[] public onSaleArtTokenArray;\n\n    // function setForSaleArtToken(uint256 _artTokenId, uint256 _price) public {\n    //     address artTokenOwner = mintArtTokenAddress.ownerOf(_artTokenId);\n\n    //     require(artTokenOwner == msg.sender, \"not owner\");\n    //     require(_price > 0, \"lower price\");\n    //     require(artTokenPrices[_artTokenId] == 0, \"already on sale\");\n    //     require(\n    //         mintArtTokenAddress.isApprovedForAll(artTokenOwner, address(this)),\n    //         \"Art token owner did not approve token\"\n    //     );\n\n    //     artTokenPrices[_artTokenId] = _price;\n\n    //     onSaleArtTokenArray.push(_artTokenId);\n    // }\n\n    function purchaseArtToken(uint256 _artTokenId)\n        public\n        payable\n        returns (uint256)\n    {\n        uint256 price = artTokenPrices[_artTokenId];\n        address artTokenOwner = mintArtTokenAddress.ownerOf(_artTokenId);\n\n        require(price > 0, \"ArtToken not sale\");\n        require(price <= msg.value, \"not money\");\n        require(artTokenOwner != msg.sender, \"not owner\");\n\n        payable(artTokenOwner).transfer(msg.value);\n        mintArtTokenAddress.safeTransferFrom(\n            artTokenOwner,\n            msg.sender,\n            _artTokenId\n        );\n\n        artTokenPrices[_artTokenId] = 0;\n\n        for (uint256 i = 0; i < onSaleArtTokenArray.length; i++) {\n            if (artTokenPrices[onSaleArtTokenArray[i]] == 0) {\n                onSaleArtTokenArray[i] = onSaleArtTokenArray[\n                    onSaleArtTokenArray.length - 1\n                ];\n                onSaleArtTokenArray.pop();\n            }\n        }\n        return 200;\n    }\n}\n",
  "sourcePath": "/Users/kunstar/nft_project/nft/server/contract/contracts/SaleArtToken.sol",
  "compiler": {
    "name": "solc",
    "version": "0.8.16+commit.07a7930e.Emscripten.clang"
  },
  "schemaVersion": "3.4.8",
  "updatedAt": "2022-08-29T01:04:32.040Z",
  "networkType": "ethereum",
  "devdoc": {
    "kind": "dev",
    "methods": {},
    "version": 1
  },
  "userdoc": {
    "kind": "user",
    "methods": {},
    "version": 1
  }
}