{
  "contractName": "SaleArtToken",
  "abi": [
    {
      "inputs": [
        {
          "internalType": "address",
          "name": "_mintArtTokenAddress",
          "type": "address"
        }
      ],
      "stateMutability": "nonpayable",
      "type": "constructor"
    },
    {
      "inputs": [
        {
          "internalType": "uint256",
          "name": "",
          "type": "uint256"
        }
      ],
      "name": "artTokenPrices",
      "outputs": [
        {
          "internalType": "uint256",
          "name": "",
          "type": "uint256"
        }
      ],
      "stateMutability": "view",
      "type": "function"
    },
    {
      "inputs": [],
      "name": "mintArtTokenAddress",
      "outputs": [
        {
          "internalType": "contract MintNFT",
          "name": "",
          "type": "address"
        }
      ],
      "stateMutability": "view",
      "type": "function"
    },
    {
      "inputs": [
        {
          "internalType": "uint256",
          "name": "",
          "type": "uint256"
        }
      ],
      "name": "onSaleArtTokenArray",
      "outputs": [
        {
          "internalType": "uint256",
          "name": "",
          "type": "uint256"
        }
      ],
      "stateMutability": "view",
      "type": "function"
    },
    {
      "inputs": [
        {
          "internalType": "uint256",
          "name": "_artTokenId",
          "type": "uint256"
        },
        {
          "internalType": "uint256",
          "name": "_price",
          "type": "uint256"
        }
      ],
      "name": "setForSaleArtToken",
      "outputs": [],
      "stateMutability": "nonpayable",
      "type": "function"
    },
    {
      "inputs": [
        {
          "internalType": "uint256",
          "name": "_artTokenId",
          "type": "uint256"
        }
      ],
      "name": "purchaseArtToken",
      "outputs": [],
      "stateMutability": "payable",
      "type": "function"
    },
    {
      "inputs": [],
      "name": "getonSaleArtTokenArrayLength",
      "outputs": [
        {
          "internalType": "uint256",
          "name": "",
          "type": "uint256"
        }
      ],
      "stateMutability": "view",
      "type": "function"
    }
  ],
  "bytecode": "0x608060405234801561001057600080fd5b5060405162000fdd38038062000fdd833981810160405281019061003491906100dd565b806000806101000a81548173ffffffffffffffffffffffffffffffffffffffff021916908373ffffffffffffffffffffffffffffffffffffffff1602179055505061010a565b600080fd5b600073ffffffffffffffffffffffffffffffffffffffff82169050919050565b60006100aa8261007f565b9050919050565b6100ba8161009f565b81146100c557600080fd5b50565b6000815190506100d7816100b1565b92915050565b6000602082840312156100f3576100f261007a565b5b6000610101848285016100c8565b91505092915050565b610ec3806200011a6000396000f3fe6080604052600436106100555760003560e01c8063367f3c0c1461005a57806339dc2c8e14610097578063729c2e84146100c0578063c21b1bf3146100eb578063c866b67b14610107578063f0488b5214610144575b600080fd5b34801561006657600080fd5b50610081600480360381019061007c9190610855565b61016f565b60405161008e9190610891565b60405180910390f35b3480156100a357600080fd5b506100be60048036038101906100b991906108ac565b610193565b005b3480156100cc57600080fd5b506100d561045a565b6040516100e2919061096b565b60405180910390f35b61010560048036038101906101009190610855565b61047e565b005b34801561011357600080fd5b5061012e60048036038101906101299190610855565b6107f5565b60405161013b9190610891565b60405180910390f35b34801561015057600080fd5b5061015961080d565b6040516101669190610891565b60405180910390f35b6002818154811061017f57600080fd5b906000526020600020016000915090505481565b60008060009054906101000a900473ffffffffffffffffffffffffffffffffffffffff1673ffffffffffffffffffffffffffffffffffffffff16636352211e846040518263ffffffff1660e01b81526004016101ef9190610891565b602060405180830381865afa15801561020c573d6000803e3d6000fd5b505050506040513d601f19601f8201168201806040525081019061023091906109c4565b90503373ffffffffffffffffffffffffffffffffffffffff168173ffffffffffffffffffffffffffffffffffffffff16146102a0576040517f08c379a000000000000000000000000000000000000000000000000000000000815260040161029790610a4e565b60405180910390fd5b600082116102e3576040517f08c379a00000000000000000000000000000000000000000000000000000000081526004016102da90610aba565b60405180910390fd5b6000600160008581526020019081526020016000205414610339576040517f08c379a000000000000000000000000000000000000000000000000000000000815260040161033090610b26565b60405180910390fd5b60008054906101000a900473ffffffffffffffffffffffffffffffffffffffff1673ffffffffffffffffffffffffffffffffffffffff1663e985e9c582306040518363ffffffff1660e01b8152600401610394929190610b55565b602060405180830381865afa1580156103b1573d6000803e3d6000fd5b505050506040513d601f19601f820116820180604052508101906103d59190610bb6565b610414576040517f08c379a000000000000000000000000000000000000000000000000000000000815260040161040b90610c55565b60405180910390fd5b8160016000858152602001908152602001600020819055506002839080600181540180825580915050600190039060005260206000200160009091909190915055505050565b60008054906101000a900473ffffffffffffffffffffffffffffffffffffffff1681565b60006001600083815260200190815260200160002054905060008060009054906101000a900473ffffffffffffffffffffffffffffffffffffffff1673ffffffffffffffffffffffffffffffffffffffff16636352211e846040518263ffffffff1660e01b81526004016104f29190610891565b602060405180830381865afa15801561050f573d6000803e3d6000fd5b505050506040513d601f19601f8201168201806040525081019061053391906109c4565b905060008211610578576040517f08c379a000000000000000000000000000000000000000000000000000000000815260040161056f90610cc1565b60405180910390fd5b348211156105bb576040517f08c379a00000000000000000000000000000000000000000000000000000000081526004016105b290610d2d565b60405180910390fd5b3373ffffffffffffffffffffffffffffffffffffffff168173ffffffffffffffffffffffffffffffffffffffff1603610629576040517f08c379a000000000000000000000000000000000000000000000000000000000815260040161062090610a4e565b60405180910390fd5b8073ffffffffffffffffffffffffffffffffffffffff166108fc349081150290604051600060405180830381858888f1935050505015801561066f573d6000803e3d6000fd5b5060008054906101000a900473ffffffffffffffffffffffffffffffffffffffff1673ffffffffffffffffffffffffffffffffffffffff166342842e0e8233866040518463ffffffff1660e01b81526004016106cd93929190610d4d565b600060405180830381600087803b1580156106e757600080fd5b505af11580156106fb573d6000803e3d6000fd5b505050506000600160008581526020019081526020016000208190555060005b6002805490508110156107ef576000600160006002848154811061074257610741610d84565b5b9060005260206000200154815260200190815260200160002054036107dc57600260016002805490506107759190610de2565b8154811061078657610785610d84565b5b9060005260206000200154600282815481106107a5576107a4610d84565b5b906000526020600020018190555060028054806107c5576107c4610e16565b5b600190038181906000526020600020016000905590555b80806107e790610e45565b91505061071b565b50505050565b60016020528060005260406000206000915090505481565b6000600280549050905090565b600080fd5b6000819050919050565b6108328161081f565b811461083d57600080fd5b50565b60008135905061084f81610829565b92915050565b60006020828403121561086b5761086a61081a565b5b600061087984828501610840565b91505092915050565b61088b8161081f565b82525050565b60006020820190506108a66000830184610882565b92915050565b600080604083850312156108c3576108c261081a565b5b60006108d185828601610840565b92505060206108e285828601610840565b9150509250929050565b600073ffffffffffffffffffffffffffffffffffffffff82169050919050565b6000819050919050565b600061093161092c610927846108ec565b61090c565b6108ec565b9050919050565b600061094382610916565b9050919050565b600061095582610938565b9050919050565b6109658161094a565b82525050565b6000602082019050610980600083018461095c565b92915050565b6000610991826108ec565b9050919050565b6109a181610986565b81146109ac57600080fd5b50565b6000815190506109be81610998565b92915050565b6000602082840312156109da576109d961081a565b5b60006109e8848285016109af565b91505092915050565b600082825260208201905092915050565b7f6e6f74206f776e65720000000000000000000000000000000000000000000000600082015250565b6000610a386009836109f1565b9150610a4382610a02565b602082019050919050565b60006020820190508181036000830152610a6781610a2b565b9050919050565b7f6c6f776572207072696365000000000000000000000000000000000000000000600082015250565b6000610aa4600b836109f1565b9150610aaf82610a6e565b602082019050919050565b60006020820190508181036000830152610ad381610a97565b9050919050565b7f616c7265616479206f6e2073616c650000000000000000000000000000000000600082015250565b6000610b10600f836109f1565b9150610b1b82610ada565b602082019050919050565b60006020820190508181036000830152610b3f81610b03565b9050919050565b610b4f81610986565b82525050565b6000604082019050610b6a6000830185610b46565b610b776020830184610b46565b9392505050565b60008115159050919050565b610b9381610b7e565b8114610b9e57600080fd5b50565b600081519050610bb081610b8a565b92915050565b600060208284031215610bcc57610bcb61081a565b5b6000610bda84828501610ba1565b91505092915050565b7f41727420746f6b656e206f776e657220646964206e6f7420617070726f76652060008201527f746f6b656e000000000000000000000000000000000000000000000000000000602082015250565b6000610c3f6025836109f1565b9150610c4a82610be3565b604082019050919050565b60006020820190508181036000830152610c6e81610c32565b9050919050565b7f417274546f6b656e206e6f742073616c65000000000000000000000000000000600082015250565b6000610cab6011836109f1565b9150610cb682610c75565b602082019050919050565b60006020820190508181036000830152610cda81610c9e565b9050919050565b7f6e6f74206d6f6e65790000000000000000000000000000000000000000000000600082015250565b6000610d176009836109f1565b9150610d2282610ce1565b602082019050919050565b60006020820190508181036000830152610d4681610d0a565b9050919050565b6000606082019050610d626000830186610b46565b610d6f6020830185610b46565b610d7c6040830184610882565b949350505050565b7f4e487b7100000000000000000000000000000000000000000000000000000000600052603260045260246000fd5b7f4e487b7100000000000000000000000000000000000000000000000000000000600052601160045260246000fd5b6000610ded8261081f565b9150610df88361081f565b9250828203905081811115610e1057610e0f610db3565b5b92915050565b7f4e487b7100000000000000000000000000000000000000000000000000000000600052603160045260246000fd5b6000610e508261081f565b91507fffffffffffffffffffffffffffffffffffffffffffffffffffffffffffffffff8203610e8257610e81610db3565b5b60018201905091905056fea26469706673582212206f038761539cec91b66704e65e63d0386dba6bee8cf5d37fc76332512377696c64736f6c63430008100033",
  "immutableReferences": {},
  "source": "// SPDX-License-Identifier: MIT\n\npragma solidity ^0.8.7;\n\nimport \"./MintNFT.sol\";\n\ncontract SaleArtToken {\n    MintNFT public mintArtTokenAddress;\n\n    constructor(address _mintArtTokenAddress) {\n        mintArtTokenAddress = MintNFT(_mintArtTokenAddress);\n    }\n\n    mapping(uint256 => uint256) public artTokenPrices;\n    uint256[] public onSaleArtTokenArray;\n\n    function setForSaleArtToken(uint256 _artTokenId, uint256 _price) public {\n        address artTokenOwner = mintArtTokenAddress.ownerOf(_artTokenId);\n\n        require(artTokenOwner == msg.sender, \"not owner\");\n        require(_price > 0, \"lower price\");\n        require(artTokenPrices[_artTokenId] == 0, \"already on sale\");\n        require(\n            mintArtTokenAddress.isApprovedForAll(artTokenOwner, address(this)),\n            \"Art token owner did not approve token\"\n        );\n\n        artTokenPrices[_artTokenId] = _price;\n\n        onSaleArtTokenArray.push(_artTokenId);\n    }\n\n    function purchaseArtToken(uint256 _artTokenId) public payable {\n        uint256 price = artTokenPrices[_artTokenId];\n        address artTokenOwner = mintArtTokenAddress.ownerOf(_artTokenId);\n\n        require(price > 0, \"ArtToken not sale\");\n        require(price <= msg.value, \"not money\");\n        require(artTokenOwner != msg.sender, \"not owner\");\n\n        payable(artTokenOwner).transfer(msg.value);\n        mintArtTokenAddress.safeTransferFrom(\n            artTokenOwner,\n            msg.sender,\n            _artTokenId\n        );\n\n        artTokenPrices[_artTokenId] = 0;\n\n        for (uint256 i = 0; i < onSaleArtTokenArray.length; i++) {\n            if (artTokenPrices[onSaleArtTokenArray[i]] == 0) {\n                onSaleArtTokenArray[i] = onSaleArtTokenArray[\n                    onSaleArtTokenArray.length - 1\n                ];\n                onSaleArtTokenArray.pop();\n            }\n        }\n    }\n\n    function getonSaleArtTokenArrayLength() public view returns (uint256) {\n        return onSaleArtTokenArray.length;\n    }\n}\n",
  "sourcePath": "/Users/kunstar/nft_project/nft/server/contract/contracts/SaleArtToken.sol",
  "compiler": {
    "name": "solc",
    "version": "0.8.16+commit.07a7930e.Emscripten.clang"
  },
  "schemaVersion": "3.4.8",
  "updatedAt": "2022-08-28T07:50:32.645Z",
  "devdoc": {
    "kind": "dev",
    "methods": {},
    "version": 1
  },
  "userdoc": {
    "kind": "user",
    "methods": {},
    "version": 1
  }
}